:100000000C94C7190C94E6190C94E6190C94E61993
:100010000C94E6190C94E6190C942A540C94E619E5
:100020000C94E6190C94E6190C94E6190C94E61954
:100030000C94E6190C94E6190C94E6190C94E61944
:100040000C94E6190C94E6190C94E6190C94E61934
:100050000C94A7540C94384E0C94E6190C94E619A1
:100060000C94E6190C9436930C94E6190C94E6194A
:100070000C94E6190C94E6190C94E6190C94E61904
:100080000C9448940C94E6190C94E6190C94E61917
:100090000C9465930C94E6190C94E6190C94E619EB
:1000A0000C94E6190C94E6190C94E6190C94E619D4
:1000B0000C94E6190C94E6190C94E6190C94E619C4
:1000C0000C94E6190C94E6190C94E619C6A5636322
:1000D000F8847C7CEE997777F68D7B7BFF0DF2F2CE
:1000E000D6BD6B6BDEB16F6F9154C5C560503030BB
:1000F00002030101CEA96767567D2B2BE719FEFE8F
:10010000B562D7D74DE6ABABEC9A76768F45CACAC7
:100110001F9D82828940C9C9FA877D7DEF15FAFA51
:10012000B2EB59598EC94747FB0BF0F041ECADAD2E
:10013000B367D4D45FFDA2A245EAAFAF23BF9C9CB6
:1001400053F7A4A4E49672729B5BC0C075C2B7B7A4
:10015000E11CFDFD3DAE93934C6A26266C5A363663
:100160007E413F3FF502F7F7834FCCCC685C3434D7
:1001700051F4A5A5D134E5E5F908F1F1E2937171E7
:10018000AB73D8D8625331312A3F1515080C0404DB
:100190009552C7C7466523239D5EC3C330281818F0
:1001A00037A196960A0F05052FB59A9A0E090707EB
:1001B000243612121B9B8080DF3DE2E2CD26EBEB62
:1001C0004E6927277FCDB2B2EA9F7575121B0909C8
:1001D0001D9E838358742C2C342E1A1A362D1B1B0B
:1001E000DCB26E6EB4EE5A5A5BFBA0A0A4F652527B
:1001F000764D3B3BB761D6D67DCEB3B3527B292932
:10020000DD3EE3E35E712F2F13978484A6F55353ED
:10021000B968D1D100000000C12CEDED4060202074
:10022000E31FFCFC79C8B1B1B6ED5B5BD4BE6A6A72
:100230008D46CBCB67D9BEBE724B393994DE4A4A64
:1002400098D44C4CB0E85858854ACFCFBB6BD0D02F
:10025000C52AEFEF4FE5AAAAED16FBFB86C543437F
:100260009AD74D4D66553333119485858ACF4545D0
:10027000E910F9F904060202FE817F7FA0F05050D8
:1002800078443C3C25BA9F9F4BE3A8A8A2F3515168
:100290005DFEA3A380C04040058A8F8F3FAD929240
:1002A00021BC9D9D70483838F104F5F563DFBCBC76
:1002B00077C1B6B6AF75DADA42632121203010106B
:1002C000E51AFFFFFD0EF3F3BF6DD2D2814CCDCD09
:1002D00018140C0C26351313C32FECECBEE15F5F32
:1002E00035A2979788CC44442E3917179357C4C426
:1002F00055F2A7A7FC827E7E7A473D3DC8AC646478
:10030000BAE75D5D322B1919E6957373C0A0606082
:10031000199881819ED14F4FA37FDCDC4466222255
:10032000547E2A2A3BAB90900B8388888CCA464621
:10033000C729EEEE6BD3B8B8283C1414A779DEDEDB
:10034000BCE25E5E161D0B0BAD76DBDBDB3BE0E05B
:1003500064563232744E3A3A141E0A0A92DB494904
:100360000C0A0606486C2424B8E45C5C9F5DC2C29B
:10037000BD6ED3D343EFACACC4A6626239A89191F1
:1003800031A49595D337E4E4F28B7979D532E7E758
:100390008B43C8C86E593737DAB76D6D018C8D8DB8
:1003A000B164D5D59CD24E4E49E0A9A9D8B46C6CA5
:1003B000ACFA5656F307F4F4CF25EAEACAAF6565FE
:1003C000F48E7A7A47E9AEAE101808086FD5BABA3B
:1003D000F08878784A6F25255C722E2E38241C1CF4
:1003E00057F1A6A673C7B4B49751C6C6CB23E8E8A5
:1003F000A17CDDDDE89C74743E211F1F96DD4B4B14
:1004000061DCBDBD0D868B8B0F858A8AE090707094
:100410007C423E3E71C4B5B5CCAA666690D84848C9
:1004200006050303F701F6F61C120E0EC2A3616166
:100430006A5F3535AEF9575769D0B9B917918686D5
:100440009958C1C13A271D1D27B99E9ED938E1E1AF
:10045000EB13F8F82BB3989822331111D2BB6969CA
:10046000A970D9D907898E8E33A794942DB69B9BFA
:100470003C221E1E15928787C920E9E98749CECE06
:10048000AAFF555550782828A57ADFDF038F8C8C7A
:1004900059F8A1A1098089891A170D0D65DABFBF26
:1004A000D731E6E684C64242D0B8686882C341418B
:1004B00029B099995A772D2D1E110F0F7BCBB0B013
:1004C000A8FC54546DD6BBBB2C3A161663C6A56364
:1004D0007CF8847C77EE99777BF68D7BF2FF0DF2CA
:1004E0006BD6BD6B6FDEB16FC59154C530605030B7
:1004F0000102030167CEA9672B567D2BFEE719FE8B
:10050000D7B562D7AB4DE6AB76EC9A76CA8F45CAC3
:10051000821F9D82C98940C97DFA877DFAEF15FA4D
:1005200059B2EB59478EC947F0FB0BF0AD41ECAD2A
:10053000D4B367D4A25FFDA2AF45EAAF9C23BF9CB2
:10054000A453F7A472E49672C09B5BC0B775C2B7A0
:10055000FDE11CFD933DAE93264C6A26366C5A365F
:100560003F7E413FF7F502F7CC834FCC34685C34D3
:10057000A551F4A5E5D134E5F1F908F171E29371E3
:10058000D8AB73D831625331152A3F1504080C04D7
:10059000C79552C723466523C39D5EC318302818EC
:1005A0009637A196050A0F059A2FB59A070E0907E7
:1005B00012243612801B9B80E2DF3DE2EBCD26EB5E
:1005C000274E6927B27FCDB275EA9F7509121B09C4
:1005D000831D9E832C58742C1A342E1A1B362D1B07
:1005E0006EDCB26E5AB4EE5AA05BFBA052A4F65277
:1005F0003B764D3BD6B761D6B37DCEB329527B292E
:10060000E3DD3EE32F5E712F8413978453A6F553E9
:10061000D1B968D100000000EDC12CED2040602070
:10062000FCE31FFCB179C8B15BB6ED5B6AD4BE6A6E
:10063000CB8D46CBBE67D9BE39724B394A94DE4A60
:100640004C98D44C58B0E858CF854ACFD0BB6BD02B
:10065000EFC52AEFAA4FE5AAFBED16FB4386C5437B
:100660004D9AD74D3366553385119485458ACF45CC
:10067000F9E910F9020406027FFE817F50A0F050D4
:100680003C78443C9F25BA9FA84BE3A851A2F35164
:10069000A35DFEA34080C0408F058A8F923FAD923C
:1006A0009D21BC9D38704838F5F104F5BC63DFBC72
:1006B000B677C1B6DAAF75DA214263211020301067
:1006C000FFE51AFFF3FD0EF3D2BF6DD2CD814CCD05
:1006D0000C18140C13263513ECC32FEC5FBEE15F2E
:1006E0009735A2974488CC44172E3917C49357C422
:1006F000A755F2A77EFC827E3D7A473D64C8AC6474
:100700005DBAE75D19322B1973E6957360C0A0607E
:10071000811998814F9ED14FDCA37FDC2244662251
:100720002A547E2A903BAB90880B8388468CCA461D
:10073000EEC729EEB86BD3B814283C14DEA779DED7
:100740005EBCE25E0B161D0BDBAD76DBE0DB3BE057
:10075000326456323A744E3A0A141E0A4992DB4900
:10076000060C0A0624486C245CB8E45CC29F5DC297
:10077000D3BD6ED3AC43EFAC62C4A6629139A891ED
:100780009531A495E4D337E479F28B79E7D532E754
:10079000C88B43C8376E59376DDAB76D8D018C8DB4
:1007A000D5B164D54E9CD24EA949E0A96CD8B46CA1
:1007B00056ACFA56F4F307F4EACF25EA65CAAF65FA
:1007C0007AF48E7AAE47E9AE08101808BA6FD5BA37
:1007D00078F08878254A6F252E5C722E1C38241CF0
:1007E000A657F1A6B473C7B4C69751C6E8CB23E8A1
:1007F000DDA17CDD74E89C741F3E211F4B96DD4B10
:10080000BD61DCBD8B0D868B8A0F858A70E0907090
:100810003E7C423EB571C4B566CCAA664890D848C5
:1008200003060503F6F701F60E1C120E61C2A36162
:10083000356A5F3557AEF957B969D0B986179186D1
:10084000C19958C11D3A271D9E27B99EE1D938E1AB
:10085000F8EB13F8982BB3981122331169D2BB69C6
:10086000D9A970D98E07898E9433A7949B2DB69BF6
:100870001E3C221E87159287E9C920E9CE8749CE02
:1008800055AAFF5528507828DFA57ADF8C038F8C76
:10089000A159F8A1890980890D1A170DBF65DABF22
:1008A000E6D731E64284C64268D0B8684182C34187
:1008B0009929B0992D5A772D0F1E110FB07BCBB00F
:1008C00054A8FC54BB6DD6BB162C3A166363C6A560
:1008D0007C7CF8847777EE997B7BF68DF2F2FF0DC6
:1008E0006B6BD6BD6F6FDEB1C5C5915430306050B3
:1008F000010102036767CEA92B2B567DFEFEE71987
:10090000D7D7B562ABAB4DE67676EC9ACACA8F45BF
:1009100082821F9DC9C989407D7DFA87FAFAEF1549
:100920005959B2EB47478EC9F0F0FB0BADAD41EC26
:10093000D4D4B367A2A25FFDAFAF45EA9C9C23BFAE
:10094000A4A453F77272E496C0C09B5BB7B775C29C
:10095000FDFDE11C93933DAE26264C6A36366C5A5B
:100960003F3F7E41F7F7F502CCCC834F3434685CCF
:10097000A5A551F4E5E5D134F1F1F9087171E293DF
:10098000D8D8AB733131625315152A3F0404080CD3
:10099000C7C7955223234665C3C39D5E18183028E8
:1009A000969637A105050A0F9A9A2FB507070E09E3
:1009B0001212243680801B9BE2E2DF3DEBEBCD265A
:1009C00027274E69B2B27FCD7575EA9F0909121BC0
:1009D00083831D9E2C2C58741A1A342E1B1B362D03
:1009E0006E6EDCB25A5AB4EEA0A05BFB5252A4F673
:1009F0003B3B764DD6D6B761B3B37DCE2929527B2A
:100A0000E3E3DD3E2F2F5E71848413975353A6F5E5
:100A1000D1D1B96800000000EDEDC12C202040606C
:100A2000FCFCE31FB1B179C85B5BB6ED6A6AD4BE6A
:100A3000CBCB8D46BEBE67D93939724B4A4A94DE5C
:100A40004C4C98D45858B0E8CFCF854AD0D0BB6B27
:100A5000EFEFC52AAAAA4FE5FBFBED16434386C577
:100A60004D4D9AD7333366558585119445458ACFC8
:100A7000F9F9E910020204067F7FFE815050A0F0D0
:100A80003C3C78449F9F25BAA8A84BE35151A2F360
:100A9000A3A35DFE404080C08F8F058A92923FAD38
:100AA0009D9D21BC38387048F5F5F104BCBC63DF6E
:100AB000B6B677C1DADAAF75212142631010203063
:100AC000FFFFE51AF3F3FD0ED2D2BF6DCDCD814C01
:100AD0000C0C181413132635ECECC32F5F5FBEE12A
:100AE000979735A2444488CC17172E39C4C493571E
:100AF000A7A755F27E7EFC823D3D7A476464C8AC70
:100B00005D5DBAE71919322B7373E6956060C0A07A
:100B1000818119984F4F9ED1DCDCA37F222244664D
:100B20002A2A547E90903BAB88880B8346468CCA19
:100B3000EEEEC729B8B86BD31414283CDEDEA779D3
:100B40005E5EBCE20B0B161DDBDBAD76E0E0DB3B53
:100B5000323264563A3A744E0A0A141E494992DBFC
:100B600006060C0A2424486C5C5CB8E4C2C29F5D93
:100B7000D3D3BD6EACAC43EF6262C4A6919139A8E9
:100B8000959531A4E4E4D3377979F28BE7E7D53250
:100B9000C8C88B4337376E596D6DDAB78D8D018CB0
:100BA000D5D5B1644E4E9CD2A9A949E06C6CD8B49D
:100BB0005656ACFAF4F4F307EAEACF256565CAAFF6
:100BC0007A7AF48EAEAE47E908081018BABA6FD533
:100BD0007878F08825254A6F2E2E5C721C1C3824EC
:100BE000A6A657F1B4B473C7C6C69751E8E8CB239D
:100BF000DDDDA17C7474E89C1F1F3E214B4B96DD0C
:100C0000BDBD61DC8B8B0D868A8A0F857070E0908C
:100C10003E3E7C42B5B571C46666CCAA484890D8C1
:100C200003030605F6F6F7010E0E1C126161C2A35E
:100C300035356A5F5757AEF9B9B969D086861791CD
:100C4000C1C199581D1D3A279E9E27B9E1E1D938A7
:100C5000F8F8EB1398982BB3111122336969D2BBC2
:100C6000D9D9A9708E8E0789949433A79B9B2DB6F2
:100C70001E1E3C2287871592E9E9C920CECE8749FE
:100C80005555AAFF28285078DFDFA57A8C8C038F72
:100C9000A1A159F8898909800D0D1A17BFBF65DA1E
:100CA000E6E6D731424284C66868D0B8414182C383
:100CB000999929B02D2D5A770F0F1E11B0B07BCB0B
:100CC0005454A8FCBBBB6DD616162C3AA56363C65C
:100CD000847C7CF8997777EE8D7B7BF60DF2F2FFC2
:100CE000BD6B6BD6B16F6FDE54C5C59150303060AF
:100CF00003010102A96767CE7D2B2B5619FEFEE783
:100D000062D7D7B5E6ABAB4D9A7676EC45CACA8FBB
:100D10009D82821F40C9C989877D7DFA15FAFAEF45
:100D2000EB5959B2C947478E0BF0F0FBECADAD4122
:100D300067D4D4B3FDA2A25FEAAFAF45BF9C9C23AA
:100D4000F7A4A453967272E45BC0C09BC2B7B77598
:100D50001CFDFDE1AE93933D6A26264C5A36366C57
:100D6000413F3F7E02F7F7F54FCCCC835C343468CB
:100D7000F4A5A55134E5E5D108F1F1F9937171E2DB
:100D800073D8D8AB533131623F15152A0C040408CF
:100D900052C7C795652323465EC3C39D28181830E4
:100DA000A19696370F05050AB59A9A2F0907070EDF
:100DB000361212249B80801B3DE2E2DF26EBEBCD56
:100DC0006927274ECDB2B27F9F7575EA1B090912BC
:100DD0009E83831D742C2C582E1A1A342D1B1B36FF
:100DE000B26E6EDCEE5A5AB4FBA0A05BF65252A46F
:100DF0004D3B3B7661D6D6B7CEB3B37D7B29295226
:100E00003EE3E3DD712F2F5E97848413F55353A6E1
:100E100068D1D1B9000000002CEDEDC16020204068
:100E20001FFCFCE3C8B1B179ED5B5BB6BE6A6AD466
:100E300046CBCB8DD9BEBE674B393972DE4A4A9458
:100E4000D44C4C98E85858B04ACFCF856BD0D0BB23
:100E50002AEFEFC5E5AAAA4F16FBFBEDC543438673
:100E6000D74D4D9A5533336694858511CF45458AC4
:100E700010F9F9E906020204817F7FFEF05050A0CC
:100E8000443C3C78BA9F9F25E3A8A84BF35151A25C
:100E9000FEA3A35DC04040808A8F8F05AD92923F34
:100EA000BC9D9D214838387004F5F5F1DFBCBC636A
:100EB000C1B6B67775DADAAF63212142301010205F
:100EC0001AFFFFE50EF3F3FD6DD2D2BF4CCDCD81FD
:100ED000140C0C18351313262FECECC3E15F5FBE26
:100EE000A2979735CC4444883917172E57C4C4931A
:100EF000F2A7A755827E7EFC473D3D7AAC6464C86C
:100F0000E75D5DBA2B191932957373E6A06060C076
:100F100098818119D14F4F9E7FDCDCA36622224449
:100F20007E2A2A54AB90903B8388880BCA46468C15
:100F300029EEEEC7D3B8B86B3C14142879DEDEA7CF
:100F4000E25E5EBC1D0B0B1676DBDBAD3BE0E0DB4F
:100F5000563232644E3A3A741E0A0A14DB494992F8
:100F60000A06060C6C242448E45C5CB85DC2C29F8F
:100F70006ED3D3BDEFACAC43A66262C4A8919139E5
:100F8000A495953137E4E4D38B7979F232E7E7D54C
:100F900043C8C88B5937376EB76D6DDA8C8D8D01AC
:100FA00064D5D5B1D24E4E9CE0A9A949B46C6CD899
:100FB000FA5656AC07F4F4F325EAEACFAF6565CAF2
:100FC0008E7A7AF4E9AEAE4718080810D5BABA6F2F
:100FD000887878F06F25254A722E2E5C241C1C38E8
:100FE000F1A6A657C7B4B47351C6C69723E8E8CB99
:100FF0007CDDDDA19C7474E8211F1F3EDD4B4B9608
:10100000DCBDBD61868B8B0D858A8A0F907070E088
:10101000423E3E7CC4B5B571AA6666CCD8484890BD
:101020000503030601F6F6F7120E0E1CA36161C25A
:101030005F35356AF95757AED0B9B96991868617C9
:1010400058C1C199271D1D3AB99E9E2738E1E1D9A3
:1010500013F8F8EBB398982B33111122BB6969D2BE
:1010600070D9D9A9898E8E07A7949433B69B9B2DEE
:10107000221E1E3C9287871520E9E9C949CECE87FA
:10108000FF5555AA782828507ADFDFA58F8C8C036E
:10109000F8A1A15980898909170D0D1ADABFBF651A
:1010A00031E6E6D7C6424284B86868D0C34141827F
:1010B000B0999929772D2D5A110F0F1ECBB0B07B07
:1010C000FC5454A8D6BBBB6D3A16162CFC10080075
:1010D000041108000C110800141108001C1108006C
:1010E000241108002C110800341108003C110D00D7
:1010F00049110D0056110D0063110D002B06010260
:10110000010101002B060102010103002B0601026F
:10111000010104002B060102010105002B0601025A
:10112000010106002B060102010B01002B06010242
:10113000010B03002B060102010B06002B06010424
:101140000181AC5D64845801002B0601040181AC6F
:101150005D64845802002B0601040181AC5D648447
:101160005804002B0601040181AC5D64845805001D
:1011700053797374656D206F6E6C696E652E0A000D
:101180000A2A2A2A2A2A2A2A2A424F4F54494E47F3
:1011900020434F4E54494B492A2A2A2A2A2A2A2ACE
:1011A0002A0A00526F7574696E6720456E61626C21
:1011B00065640A000A002C20636865636B20726115
:1011C000746520257520487A0025732025732C200E
:1011D0006368616E6E656C202575004D414320612A
:1011E0006464726573732025783A25783A25783AD5
:1011F00025783A25783A25783A25783A25780A00EC
:1012000053656E64696E67207061636B65742077E7
:10121000697468206C656E677468202564202825D1
:1012200064290A000A0066726F6D0053656E646976
:101230006E6720544350207061636B657420746F37
:1012400000496E207463705F73656E640A00496EB6
:1012500020666F756E640A00496E20666F756E6455
:10126000206C697374656E0A00496E20726573653F
:10127000740A007463703A207A65726F20706F721E
:10128000742E007463703A20626164206368656341
:101290006B73756D203078253034782030782530A8
:1012A00034780A00526563656976696E6720544335
:1012B00050207061636B65740A00496E207564701C
:1012C0005F73656E640A00496E207564705F666FB7
:1012D000756E640A007564703A206E6F206D6174DB
:1012E0006368696E6720636F6E6E656374696F6EA5
:1012F00020666F756E640A007564703A207A6572B4
:101300006F20706F72742E0A007564703A206261EB
:101310006420636865636B73756D203078253034A5
:1013200078203078253034780A0052656365697614
:10133000696E6720554450207061636B65740A00C4
:10134000556E6B6E6F776E2069636D7036206D65BC
:10135000737361676520747970652025640A005293
:101360006563656976656420616E2069636D7036BA
:10137000206563686F207265706C790A0069636D1F
:101380007076363A2062616420636865636B7375BA
:101390006D2E0069636D70365F696E7075743A20EA
:1013A0006C656E67746820256420747970653A20D6
:1013B0002564200A0050726F63657373696E67203D
:1013C000526F7574696E67206865616465720A00A2
:1013D00050726F63657373696E6720646573746FB1
:1013E000206865616465720A0050726F636573738B
:1013F000696E6720686268206865616465720A00CA
:1014000044726F7070696E67207061636B65742CD5
:10141000206E6F7420666F72206D6520616E64208F
:101420006C696E6B206C6F63616C206F72206D75E0
:101430006C7469636173740A004C4C20736F75722D
:1014400063652061646472657373207769746820D2
:101450006F6666206C696E6B2064657374696E617B
:1014600074696F6E2C2064726F7070696E670A0009
:101470000A00466F7277617264696E6720706163FB
:101480006B657420746F200044726F7070696E67B2
:10149000207061636B65742C207372632069732004
:1014A0006D636173740A000A0020746F2000495054
:1014B0007636207061636B6574207265636569764A
:1014C00065642066726F6D20004D53422025780AB6
:1014D0000052504C204F7074696F6E204572726FCD
:1014E00072203A2044726F7070696E672050616399
:1014F0006B65740050726F63657373696E67205219
:10150000504C206F7074696F6E0A0050726F636583
:101510007373696E67205041444E206F7074696F19
:101520006E0A0050726F63657373696E6720504175
:101530004431206F7074696F6E0A0043757474696A
:101540006E67206578742D686561646572206265D8
:10155000666F72652070726F63657373696E672062
:10156000286578746C656E3A2025642C2075697046
:101570006C656E3A202564290A00557070657220EA
:101580006C6179657220636865636B73756D206C3F
:10159000656E3A2025642066726F6D3A2025640AD4
:1015A000007569705F697063686B73756D3A20735D
:1015B000756D203078253034780A00746370697056
:1015C0005F697076365F6F75747075743A206E62FD
:1015D0007220636163686520656E7472792073742C
:1015E000616C65206D6F76696E6720746F2064652D
:1015F0006C61790A0074637069705F697076365F38
:101600006F75747075743A206E62722063616368DE
:101610006520656E74727920696E636F6D706C659C
:1016200074650A0074637069705F697076365F6F05
:1016300075747075743A2044657374696E61746969
:101640006F6E206F66662D6C696E6B2062757420FC
:101650006E6F20726F7574650A000A0066726F6D96
:101660000053656E64696E6720524120746F0052AA
:1016700053207265636569766564206973206261D1
:10168000640A004E44206F7074696F6E206E6F7430
:1016900020737570706F7274656420696E20525388
:1016A0000A00525320726563656976656420697328
:1016B000206261640A005253207265636569766531
:1016C00064206973206261640A000A00746F00522A
:1016D000656365697665642052532066726F6D009C
:1016E0004E41207265636569766564206973206286
:1016F00061640A004E44206F7074696F6E206E6FD3
:101700007420737570706F7274656420696E204EFA
:10171000410A004E412072656365697665642069FF
:1017200073206261640A004E4120726563656976C8
:101730006564206973206261640A000A0077697435
:101740006820746172676574206164647265737384
:1017500000746F005265636569766564204E4120B0
:1017600066726F6D000A0077697468207461726731
:10177000657420616464726573730066726F6D00D6
:1017800053656E64696E67204E5320746F00447217
:101790006F7070696E67204E532064756520746F9A
:1017A000206E6F207375697461626C6520736F754C
:1017B00072636520616464726573730A000A0020B5
:1017C00077697468207461726765742061646472FB
:1017D00065737320002066726F6D200053656E6420
:1017E000696E67204E4120746F20004E5320726551
:1017F000636569766564206973206261640A004EDE
:10180000532072656365697665642069732062613F
:10181000640A004E44206F7074696F6E206E6F749E
:1018200020737570706F7274656420696E204E53FA
:10183000004E532072656365697665642069732084
:101840006261640A004E532072656365697665645F
:10185000206973206261640A004E532072656365DB
:1018600069766564206973206261640A000A002059
:10187000776974682074617267657420616464724A
:101880006573730020746F20005265636569766527
:1018900064204E532066726F6D200052616E646F3B
:1018A0006D2074696D652033203D2025750A005236
:1018B000616E646F6D2074696D652032203D202556
:1018C000750A0052616E646F6D2074696D65203118
:1018D000203D2025750A0053656E64696E6720708F
:1018E0006572696F6469632052410A00536F6C69C5
:1018F00063697465642052412C2072616E646F6D5F
:101900002074696D652025750A00234C20257520FB
:10191000300A00234C20257520300A00234C202556
:101920007520313B626C75650A000A00207669619A
:1019300020004453363A20616464696E6720726FF8
:101940007574653A20004453363A204E6F20726F0A
:1019500075746520666F756E640A000A00207669EA
:101960006120004453363A20466F756E6420726FD2
:101970007574653A000A004453363A204C6F6F6B19
:10198000696E6720757020726F75746520666F725E
:1019900020004E6F206D6F7265207370616365204B
:1019A000696E20507265666978206C6973740A00EC
:1019B0006C656E6774682025752C20666C61677392
:1019C0002025782C2056616C6964206C69666574EA
:1019D000696D6520256C782C20507265666665728D
:1019E0006564206C69666574696D6520256C780A8C
:1019F00000416464696E67207072656669782000D2
:101A00000A00446566727420494E434F4D504C4560
:101A1000544520666F756E642C20495020616464C3
:101A20007265737320000A00446566727420666FE5
:101A3000756E642C20495020616464726573732054
:101A4000000A0044656672742C2049502061646469
:101A5000726573732000234C20257520300A002303
:101A60004C20257520310A000A00416464696E67C4
:101A700020646566726F757465722077697468207A
:101A80006970206164647220007569705F647336E8
:101A90005F6E62725F6164642064726F700A0073CB
:101AA000746174652025750A006C696E6B20616431
:101AB00064722000416464696E67206E65696768BE
:101AC000626F722077697468206970206164647243
:101AD000200050524F42453A204E532025750A00AF
:101AE00050524F424520454E440A0044454C41590E
:101AF0003A206D6F76696E6720746F2050524F42A6
:101B0000450A00290A00524541434841424C453AA2
:101B1000206D6F76696E6720746F205354414C4579
:101B20002028004E42525F494E434F4D504C455481
:101B3000453A204E532025750A002575206E6569AB
:101B40006768626F72730A25752064656661756CDB
:101B50007420726F75746572730A257520707265D2
:101B600066697865730A257520726F757465730AE6
:101B7000257520756E696361737420616464726594
:101B8000737365730A2575206D756C746963617371
:101B900074206164647265737365730A25752061CE
:101BA0006E796361737420616464726573736573C5
:101BB0000A00496E6974206F6620495076362064A9
:101BC00061746120737472756374757265730A0051
:101BD00052504C20737461727465640A000A00529A
:101BE000504C3A2044656C6574696E6720726F755D
:101BF00074657320696E7374616C6C6564206279BE
:101C00002044414F73207265636569766564206680
:101C1000726F6D200020696E20696E7374616E634F
:101C2000652025752062656361757365206F662088
:101C300062616420636F6E6E65637469766974793E
:101C40002028455458202564290A0052504C3A2037
:101C500052656D6F76696E6720706172656E742073
:101C6000002069732025736B6E6F776E2E204554AC
:101C700058203D2025750A0052504C3A204E656987
:101C80006768626F7220000A0052504C3A20526519
:101C90006D6F76696E67206E65696768626F722026
:101CA000000A002F256420766961200052504C3ACA
:101CB000204164646564206120726F7574652074CE
:101CC0006F20000A0020746F200052504C3A2055BB
:101CD00070646174656420746865206E6578742032
:101CE000686F7020666F7220707265666978200078
:101CF00052504C3A204E6F20737061636520666FBE
:101D000072206D6F726520726F75746520656E74D8
:101D1000726965730A00234C20257520300A005231
:101D2000504C3A205468652063616E646964617444
:101D30006520706172656E742069732072656A65D2
:101D4000637465640A00706172656E742072616EFE
:101D50006B2025752C20706172656E742065747817
:101D60002025752C206C696E6B206D65747269631B
:101D70002025752C20696E7374616E63652065740F
:101D8000782025750A002C2072616E6B2025752C39
:101D9000206D696E5F72616E6B2025752C2000527C
:101DA000504C3A20707265666572726564204441D9
:101DB00047200052504C3A2052656365697665644D
:101DC00020636F6E73697374656E742044494F0AA3
:101DD000000A0052504C3A204E65772063616E64D1
:101DE000696461746520706172656E7420776974CE
:101DF000682072616E6B2025753A2000290A005216
:101E0000504C3A204661696C656420746F206164AF
:101E1000642061206E657720706172656E74202881
:101E20000052504C3A2049676E6F72696E672044C9
:101E3000494F207769746820746F6F206C6F77202A
:101E400072616E6B3A2025750A0052504C3A206F31
:101E50006C642076657273696F6E20726563656964
:101E6000766564203D3E20696E636F6E736973749E
:101E7000656E63792064657465637465640A0052F5
:101E8000504C3A20526F6F742072656365697665B5
:101E90006420696E636F6E73697374656E74204439
:101EA000494F2076657273696F6E206E756D62653D
:101EB000720A0052504C3A20416464696E67206E89
:101EC00065772044414720746F206B6E6F776E20DA
:101ED000696E7374616E63652E0A0052504C3A202D
:101EE0004E657720696E7374616E636520646574F6
:101EF00065637465643A204A6F696E696E672E2E59
:101F00002E0A000A0052504C3A2049676E6F7269DF
:101F10006E672044494F2066726F6D206E6F646556
:101F2000207769746820696E66696E6974652072CD
:101F3000616E6B3A200052504C3A2049676E6F72C6
:101F4000696E6720612044494F2077697468206179
:101F50006E20756E737570706F72746564204D4F6E
:101F6000503A2025640A0052504C3A205061727455
:101F7000696369706174696E6720696E20612067AA
:101F80006C6F62616C207265706169722028766581
:101F90007273696F6E3D25752C2072616E6B3D25E5
:101FA0006875290A0052504C3A204661696C656494
:101FB00020746F20616464206120706172656E74AA
:101FC00020647572696E672074686520676C6F6243
:101FD000616C207265706169720A0052504C3A203F
:101FE00052656D6F76696E6720706172656E74738D
:101FF00020286D696E696D756D2072616E6B20258C
:1020000075290A0052504C3A2052656D6F76696E00
:10201000672074686520776F7273742070617265D1
:102020006E740A0052504C3A20576520646F6E2738
:1020300074206861766520616E7920706172656ECA
:102040007400202872616E6B202575290A00525099
:102050004C3A2054686520707265666572726564DA
:1020600020706172656E74206973200052504C3A82
:10207000204D6F76696E6720696E207468652069EF
:102080006E7374616E63652066726F6D2072616E2F
:102090006B2025687520746F202568750A005250E2
:1020A0004C3A204E6F20706172656E747320666FBB
:1020B000756E6420696E20616E79204441470A0084
:1020C00052504C3A20556E61636365707461626C66
:1020D000652072616E6B2025750A0052504C3A20C3
:1020E0004120706172656E74207761732064726F35
:1020F000707065640A0052504C3A205374617274D7
:10210000696E672061206C6F63616C20696E737407
:10211000616E6365207265706169720A0052504C8D
:102120003A2052656D6F76696E6720706172656ED8
:10213000747320286D696E696D756D2072616E6BA8
:10214000202575290A002341206A6F696E3D257597
:102150000A000A0052504C3A204A6F696E656420AA
:10216000444147207769746820696E7374616E63B7
:10217000652049442025752C2072616E6B202568EE
:10218000752C20444147204944200052504C3A20AD
:1021900044494F20666F722044414720696E737432
:1021A000616E636520257520756E636F6D70617457
:1021B00069626C6520776974682070726576696FF2
:1021C000732044494F0A00737563636565646564F1
:1021D0000A006661696C65640A00206173206120F1
:1021E000706172656E743A200052504C3A2041641E
:1021F00064696E67200052504C3A204661696C65F4
:102200006420746F20616C6C6F6361746520612061
:10221000444147206F626A656374210A0052504C42
:102220003A205468652044494F20646F6573206EDE
:102230006F74206D656574207468652070726572B6
:1022400065717569736974657320666F7220736553
:102250006E64696E6720612044414F0A002341206B
:102260006A6F696E3D25750A000A0052504C3A208B
:102270004A6F696E6564204441472077697468201D
:10228000696E7374616E63652049442025752C2046
:1022900072616E6B202568752C20444147204944AB
:1022A000200052504C3A2044494F20666F7220441F
:1022B000414720696E7374616E63652025752064E3
:1022C0006F6573206E6F7420737065636966792023
:1022D0006120737570706F72746564204F460A00D8
:1022E0007375636365656465640A006661696C653E
:1022F000640A00206173206120706172656E743A17
:10230000200052504C3A20416464696E67200052AC
:10231000504C3A204661696C656420746F20616C92
:102320006C6F63617465206120444147206F626A6D
:10233000656374210A000A0052504C3A20616464BB
:10234000696E6720676C6F62616C20495020616420
:10235000647265737320000A0052504C3A20726513
:102360006D6F76696E6720676C6F62616C20495093
:10237000206164647265737320000A0052504C3A05
:10238000204D6F76696E6720706172656E742000F3
:102390000A0052504C3A2052656D6F76696E672084
:1023A00064656661756C7420726F75746520000ACF
:1023B0000052504C3A204E756C6C696679696E67B4
:1023C00020706172656E7420000A0052504C3A20F1
:1023D00052656D6F76696E672064656661756C74B1
:1023E00020726F75746520000A0052504C3A2052DA
:1023F000656D6F76696E6720706172656E7420001E
:1024000052504C3A20507265666572726564207055
:102410006172656E74207570646174652C207261E0
:102420006E6B206368616E6765642066726F6D20F5
:10243000257520746F2025750A0052504C3A2043B0
:1024400068616E6765642070726566657272656446
:1024500020706172656E742C2072616E6B206368EF
:10246000616E6765642066726F6D20257520746FDC
:102470002025750A0052504C3A204E657720726133
:102480006E6B20756E61636365707461626C65214B
:102490000A000A0052504C3A204E6577207072654F
:1024A000666572726564204441473A20000A005212
:1024B000504C3A204C656176696E672074686520DF
:1024C000444147200052504C3A204C656176696E79
:1024D000672074686520696E7374616E636520257A
:1024E000750A000A0052504C3A20416464696E67D4
:1024F0002064656661756C7420726F7574652074F4
:1025000068726F75676820000A0052504C3A20527A
:10251000656D6F76696E672064656661756C7420A1
:10252000726F757465207468726F756768200052E9
:10253000504C3A2050726566697820736574202D7E
:102540002077696C6C20616E6E6F756E63652074A8
:1025500068697320696E2044494F730A0023412043
:10256000726F6F743D25750A000A0052504C3A2074
:102570004E6F64652073657420746F2062652061FE
:102580002044414720726F6F74207769746820443B
:102590004147204944200052504C3A204661696C22
:1025A000656420746F20616C6C6F63617465206179
:1025B000204441470A0052504C3A2044726F7070D8
:1025C000696E672061206A6F696E656420444147C7
:1025D000207768656E2073657474696E672074680F
:1025E0006973206E6F646520617320726F6F740071
:1025F00052504C3A20726563656976656420616E5D
:1026000020756E6B6E6F776E2049434D5036206398
:102610006F646520282575290A005265636569760F
:10262000656420616E2052504C20636F6E74726F2F
:102630006C206D6573736167650A0052504C3A20D7
:10264000556E737570706F72746564207375626F08
:102650007074696F6E207479706520696E204449CA
:102660004F3A2025750A0052504C3A20436F70793A
:10267000696E672070726566697820696E666F7230
:102680006D6174696F6E0A0052504C3A20444147A4
:102690002070726566697820696E666F206E6F744F
:1026A000206F6B2C206C656E20213D2033320A0098
:1026B00052504C3A2044414720636F6E663A646240
:1026C0006C3D25642C206D696E3D25642072656427
:1026D0003D2564206D6178696E633D2564206D69D8
:1026E0006E696E633D2564206F63703D25642064D0
:1026F0005F6C3D2575206C5F753D25750A00525055
:102700004C3A20496E76616C6964204441472063ED
:102710006F6E66696775726174696F6E206F707431
:10272000696F6E2C206C656E203D2025640A005276
:10273000504C3A20496E76616C696420726F7574F2
:102740006520696E666F206F7074696F6E2C206CE7
:10275000656E203D2025640A0052504C3A20436F9C
:102760007079696E672064657374696E6174696FEE
:102770006E207072656669780A0052504C3A2049A2
:102780006E76616C69642064657374696E617469E6
:102790006F6E20707265666978206F7074696F6EF5
:1027A0002C206C656E203D2025640A0052504C3A66
:1027B00020556E68616E646C656420444147204D0D
:1027C0004320747970653A2025750A0052504C3ABE
:1027D00020444147204D433A207479706520257587
:1027E0002C20666C6167732025752C2061676772E9
:1027F0002025752C20707265632025752C206C6552
:102800006E6774682025752C204554582025750A5C
:102810000052504C3A20496E76616C696420444104
:1028200047204D432C206C656E203D2025640A0016
:1028300052504C3A2044494F206F7074696F6E209B
:1028400025752C206C656E6774683A2025750A0022
:1028500052504C3A20496E76616C69642044494F6D
:10286000207061636B65740A002C202575290A00AD
:1028700052504C3A20496E636F6D696E672044492F
:102880004F20286461675F69642C20707265662937
:10289000203D20280052504C3A20496E636F6D69EC
:1028A0006E672044494F202869642C207665722C7D
:1028B0002072616E6B29203D202825752C25752CF2
:1028C0002575290A0052504C3A204E6569676862A6
:1028D0006F7220616C726561647920696E206E652B
:1028E000696768626F722063616368650A000A0045
:1028F0002C200052504C3A204E65696768626F7216
:1029000020616464656420746F206E656967686225
:102910006F7220636163686520000A0052504C3A70
:1029200020526563656976656420612044494F20C3
:1029300066726F6D200052504C3A20556E6963618B
:102940007374204449532C207265706C7920746F25
:102950002073656E6465720A0052504C3A204D75C2
:102960006C74696361737420444953203D3E207246
:10297000657365742044494F2074696D65720A005F
:102980000A0052504C3A20526563656976656420AE
:1029900061204449532066726F6D20000A00525036
:1029A0004C3A20466F7277617264696E67204441C9
:1029B0004F20746F20706172656E74200052504C0D
:1029C0003A20436F756C64206E6F742061646420DC
:1029D0006120726F7574652061667465722072651E
:1029E00063656976696E6720612044414F0A005231
:1029F000504C3A204C6F6F70206465746563746549
:102A000064207768656E20726563656976696E67B4
:102A1000206120756E69636173742044414F2066A4
:102A2000726F6D2061206E6F646520776974682015
:102A300061206C6F7765722072616E6B2120282592
:102A400075203C202575290A000A0052504C3A2076
:102A500053657474696E6720657870697261746912
:102A60006F6E2074696D657220666F72207072657A
:102A700066697820000A0052504C3A2044414F20A9
:102A80006C69666574696D653A2025752C207072D5
:102A900065666978206C656E6774683A20257520D4
:102AA0007072656669783A200052504C3A20496746
:102AB0006E6F72696E6720612044414F20666F72AD
:102AC00020612044414720646966666572656E74C2
:102AD0002066726F6D206F7572730A0052504C3A07
:102AE0002049676E6F72696E6720612044414F20F4
:102AF000666F7220616E20756E6B6E6F776E2052FE
:102B0000504C20696E7374616E6365282575290ABF
:102B1000000A0052504C3A2052656365697665643C
:102B200020612044414F2066726F6D20000A0052E0
:102B3000504C3A2052656365697665642061204493
:102B4000414F2041434B207769746820736571754C
:102B5000656E6365206E756D626572202564206107
:102B60006E64207374617475732025642066726FBF
:102B70006D20000A0052504C3A2053656E64696E15
:102B80006720612044414F2041434B20776974689E
:102B90002073657175656E6365206E756D62657213
:102BA00020256420746F20000A0020746F200052DA
:102BB000504C3A2053656E64696E672044414F2043
:102BC0007769746820707265666978200052504C8D
:102BD0003A204E6F20676C6F62616C206164647292
:102BE0006573732073657420666F722074686973EF
:102BF000206E6F6465202D2073757070726573731D
:102C0000696E672044414F0A000A0052504C3A2036
:102C100053656E64696E6720756E69636173742DA8
:102C200044494F20776974682072616E6B20257566
:102C300020746F200052504C3A2053656E64696EC8
:102C4000672061206D756C7469636173742D4449EC
:102C50004F20776974682072616E6B2025750A00B9
:102C600052504C3A204E6F2070726566697820741D
:102C70006F20616E6E6F756E636520286C656E20C7
:102C80002564290A000A0052504C3A2053656E64AC
:102C9000696E672070726566697820696E666F205C
:102CA000696E2044494F20666F72200052504C3AA2
:102CB00020556E61626C6520746F2073656E6420B0
:102CC00044494F2062656361757365206F662075A6
:102CD0006E68616E646C656420444147204D4320FA
:102CE000747970652025750A000A0052504C3A200C
:102CF00053656E64696E6720612044495320746F88
:102D0000200052504C3A205363686564756C696EBC
:102D1000672044414F2074696D65722025752074C9
:102D200069636B7320696E207468652066757475BD
:102D300072650A0052504C3A2044414F2074696D2C
:102D4000657220616C726561647920736368656483
:102D5000756C65640A0052504C3A204E6F207375B2
:102D6000697461626C652044414F20706172656EC8
:102D7000740A0052504C3A2068616E646C655F645E
:102D8000616F5F74696D6572202D2073656E646973
:102D90006E672044414F0A0052504C3A20506F73E6
:102DA00074706F6E652044414F207472616E736D54
:102DB000697373696F6E0A0052504C3A205363680E
:102DC0006564756C696E672044494F2074696D6550
:102DD0007220256C75207469636B7320696E2066A0
:102DE00075747572652028496E74657276616C29F8
:102DF0000A0052504C3A2044494F2054696D657284
:102E000020696E74657276616C20646F75626C65A2
:102E1000642025640A0052504C3A2053636865646C
:102E2000756C696E672044494F2074696D65722026
:102E3000256C75207469636B7320696E20667574E8
:102E4000757265202873656E74290A0052504C3AD9
:102E50002053757072657373696E672044494F2003
:102E60007472616E736D697373696F6E2028256467
:102E7000203E3D202564290A0052504C3A20506FD4
:102E80007374706F6E696E672044494F207472616D
:102E90006E736D697373696F6E2073696E636520FD
:102EA0006C696E6B206C6F63616C20616464726529
:102EB0007373206973206E6F74206F6B0A00525019
:102EC0004C3A2044494F2054696D657220747269F0
:102ED0006767657265640A0052504C3A204D79204C
:102EE000706174682045545820746F2074686520A0
:102EF000726F6F742069732025752E25750A005234
:102F0000504C3A204D52484F462068797374657290
:102F1000657369733A202575203C3D202575203C5A
:102F20003D2025750A0052504C3A204D756C74694D
:102F300020486F702D62792D686F70206F707469F2
:102F40006F6E73206E6F7420696D706C656D656E49
:102F50007465640A0052504C3A205570646174697B
:102F60006E672052504C206F7074696F6E2028730A
:102F70007769746368696E672064697265637469F0
:102F80006F6E290A0052504C3A204E6F20686F70C5
:102F90002D62792D686F70204F7074696F6E206696
:102FA0006F756E640A0052504C3A2056657269661D
:102FB00079696E67207468652070726573656E63E9
:102FC00065206F66207468652052504C20686561EA
:102FD000646572206F7074696F6E0A0052504C3ACB
:102FE000204E6F20686F702D62792D686F70204FB2
:102FF0007074696F6E20666F756E640A0052504C73
:103000003A2052656D6F76696E672074686520524C
:10301000504C20686561646572206F7074696F6ED2
:103020000A0052504C3A20566572696679696E679B
:10303000207468652070726573656E6365206F66C5
:10304000207468652052504C206865616465722068
:103050006F7074696F6E0A0052504C3A20556E6161
:10306000626C6520746F2061646420686F702D62EB
:10307000792D686F7020657874656E73696F6E2046
:103080006865616465723A20696E636F7272656328
:10309000742064656661756C7420696E7374616E0A
:1030A00063650A0052504C3A205570646174696E31
:1030B000672052504C206F7074696F6E0A00525036
:1030C0004C3A204E6F6E2052504C20486F702D624B
:1030D000792D686F70206F7074696F6E73207375CF
:1030E00070706F7274206E6F7420696D706C656D96
:1030F000656E7465640A0052504C3A204D756C74CC
:103100006920486F702D62792D686F70206F707420
:10311000696F6E73206E6F7420696D706C656D657C
:103120006E7465640A0052504C3A205570646174A4
:10313000696E672052504C206F7074696F6E0A0080
:1031400052504C3A205061636B657420746F6F204D
:103150006C6F6E673A20696D706F737369626C652E
:1031600020746F2061646420686F702D62792D680F
:103170006F70206F7074696F6E0A0052504C3A2065
:103180004E6F20686F702D62792D686F70206F70A0
:1031900074696F6E20666F756E642C206372656152
:1031A00074696E672069740A0052504C3A20556E5B
:1031B00061626C6520746F2061646420686F702D9B
:1031C00062792D686F7020657874656E73696F6EB3
:1031D000206865616465723A20696E636F7272651A
:1031E000637420696E7374616E63650A0052504C9B
:1031F0003A204E6F6E2052504C20486F702D6279ED
:103200002D686F70206F7074696F6E7320737570A6
:10321000706F7274206E6F7420696D706C656D656F
:103220006E7465640A0052504C3A205665726966A5
:1032300079696E67207468652070726573656E6366
:1032400065206F66207468652052504C2068656167
:10325000646572206F7074696F6E0A0052504C3A48
:103260002052616E6B204F4B0A0052504C3A205353
:10327000696E676C65206572726F7220746F6C6521
:1032800072617465640A0052504C3A2052616E6B50
:10329000206572726F72207369676E616C6C656411
:1032A00020696E2052504C206F7074696F6E210A35
:1032B0000052504C3A204C6F6F7020646574656307
:1032C000746564202D2073656E64657272616E6B27
:1032D0003A202564206D792D72616E6B3A20256449
:1032E0002073656E6465725F636C6F7365723A20FC
:1032F00025640A0052504C3A205061636B6574207B
:10330000676F696E672025730A0052504C3A204E51
:103310006F2044414720696E2074686520696E7390
:1033200074616E63650A0052504C3A20556E6B6EA4
:103330006F776E20696E7374616E63653A202575D0
:103340000A0052504C3A20466F72776172642065D1
:1033500072726F72210A0052504C3A20426164200E
:10336000686561646572206F7074696F6E212028D2
:1033700077726F6E67206C656E677468290A002526
:10338000303278003A002578003A003A3A001124A9
:103390001FBECFEFD1E2DEBFCDBF18E0A0E0B2E0AC
:1033A000ECE4FBE801E00BBF02C007900D92A034F3
:1033B000B107D9F716E1A0E4B8E001C01D92A13B26
:1033C000B107E1F70E946A4D0C94A4C50C9400006B
:1033D000EF92FF920F931F93DF93CF93CDB7DEB79A
:1033E000C65ED1400FB6F894DEBF0FBECDBF909140
:1033F0000013891709F052C08091631281FF4EC0FB
:103400004091400850914108CA01ABE7B1E120E189
:103410000D90FC010192CF012150D1F780919B11B9
:1034200090919C11DA0153969C938E9352978AE067
:1034300092E00E946EC2609163117091641183E00A
:10344000E82EF12CEC0EFD1E80916812909169120D
:10345000A7019E012F5F3F4F04EE11E00E94DE1B8B
:10346000E0914008F0914108882339F0138A128ACC
:1034700080E111928A95E9F711C049815A81CF0103
:10348000B7010E943170E0914008F091410880E15D
:10349000DF011D928A95E9F7138A128ACA51DE4F1D
:1034A0000FB6F894DEBF0FBECDBFCF91DF911F9155
:1034B0000F91FF90EF90089580E090E00E94C5C4C6
:1034C000AB01BC014F3F8FEF58078FEF68078FE7C5
:1034D000780748F44F5F5F4F6F4F7F4F80E090E079
:1034E0000E94CBC404C083E492E00E946EC280E0DC
:1034F00090E00E94C5C400D000D000D028EB32E09C
:10350000EDB7FEB73283218363837483858396830B
:103510000E9435C28DB79EB706960FB6F8949EBF2F
:103520000FBE8DBF80E00895609130107091311012
:10353000809132109091331024E630E040E050E06A
:103540000E9498BF97FF0AC010923010109231105D
:1035500010923210109233100E945C1A6091301059
:1035600070913110809132109091331024E630E048
:1035700040E050E00E9498BF089580E090E00E94F3
:10358000C5C4089500D000D000D0EDB7FEB7319685
:103590008BED92E0ADB7BEB712969C938E931197C8
:1035A0008FEF91E29383828381EB96E1958384830D
:1035B0000E9435C28DB79EB706960FB6F8949EBF8F
:1035C0000FBE8DBFE0E0F2E220E030E0A90108C0CC
:1035D000B291A29192918291282739274A275B279D
:1035E00096E1E53BF907A0F7B901CA010895CF9329
:1035F000DF93EC01862F288139812115310531F0C7
:1036000091E02533390709F06DC068C0259A269AE4
:10361000279A2F982E9A2D9A80E090E060E070E033
:1036200040E050E00E941D6D909341088093400857
:1036300020E031EADC0151963C932E9350970E9492
:103640005C1A0E94C21A0E94E7C10E94E2C1609304
:103650000C1070930D1080930E1090930F100E9419
:10366000E2C1609310107093111080931210909328
:103670001310EDB7FEB73A970FB6F894FEBF0FBE22
:10368000EDBF319627EF32E0ADB7BEB712963C934F
:103690002E93119720910C1030910D1040910E1027
:1036A00050910F102283338344835583668377833D
:1036B000808791870E9435C2EDB7FEB73A960FB664
:1036C000F894FEBF0FBEEDBF0E94AF4B8F3F51F08D
:1036D00085E391E09983888381E007C0BA010E9465
:1036E000E819F6CF1982188283E0DF91CF9108950F
:1036F00020910C1030910D1040910E1050910F1030
:103700002F5F3F4F4F4F5F4F20930C1030930D10A2
:1037100040930E1050930F10B901CA0108952091E3
:1037200010103091111040911210509113102F5F12
:103730003F4F4F4F5F4F2093101030931110409325
:10374000121050931310B901CA01089560914E08E8
:1037500070914F08809150089091510808956091A0
:10376000420870914308809144089091450808955B
:1037700060914608709147088091480890914908E7
:10378000089560914A0870914B0880914C0890917F
:103790004D08089580914A0890914B08A0914C08DB
:1037A000B0914D080196A11DB11D80934A089093D8
:1037B0004B08A0934C08B0934D0808952F923F9268
:1037C0004F925F926F927F928F929F92AF92BF9231
:1037D000CF92DF92EF92FF920F931F93DF93CF93DD
:1037E00000D000D000D0CDB7DEB75C017B012A014C
:1037F0001901380180914E0890914F08A09150080E
:10380000B09151080196A11DB11D80934E0890936F
:103810004F08A0935008B093510800D000D000D0BA
:1038200022E433E0EDB7FEB73283218383839483B0
:10383000A583B6830E9435C28DB79EB706960FB694
:10384000F8949EBF0FBE8DBF95EEE91691E0F90684
:1038500008F0CDC01A821982C501B7014E01089443
:10386000811C911CA4010E94A627882351F4C50144
:10387000B701A4019E012D5F3F4F0E94F5278823C9
:10388000C1F083E593E00E946EC28091460890915A
:103890004708A0914808B09149080196A11DB11DA3
:1038A0008093460890934708A0934808B09349082E
:1038B0009EC08B819C81AD81BE8183309105A10525
:1038C000B10551F582E390E00E9400C0192FC82E87
:1038D000D92EE82FF92F82E3DF011D928A95E9F7AF
:1038E00083E0F60180838EE893E00E946EC2C501FA
:1038F000B701A4012C2D312F0E94FA1D992787FDB5
:103900009095A92FB92F8B839C83AD83BE8300979D
:10391000A105B10569F543C0809142089091430823
:10392000A0914408B09145080196A11DB11D809356
:10393000420890934308A0934408B093450800D0F0
:1039400000D0EDB7FEB7319687EB93E0ADB7BEB7C9
:1039500012969C938E93119780910000828313821C
:103960000E9435C20F900F900F900F9081E042C0DF
:103970008091460890914708A0914808B091490865
:103980000196A11DB11D8093460890934708A0930E
:103990004808B0934908C6010E949D2F28C0C6015F
:1039A0000E944D23F60180818330B1F481EE93E0D3
:1039B0000E946EC28C2D912FB201A1019501870149
:1039C00073010E94C41E992787FD9095A92FB92FD6
:1039D0008B839C83AD83BE83C6010E949D2F8B8108
:1039E0009C81AD81BE810097A105B10511F08FEFDB
:1039F00001C080E026960FB6F894DEBF0FBECDBFA3
:103A0000CF91DF911F910F91FF90EF90DF90CF90BA
:103A1000BF90AF909F908F907F906F905F904F90EE
:103A20003F902F9008954F925F926F927F928F9266
:103A30009F92AF92BF92CF92DF92EF92FF920F933D
:103A40001F93DF93CF9300D0CDB7DEB75C016B013E
:103A50002A01A90198013701FA82E9828C010F5FDE
:103A60001F4FCB014E010894811C911CB4010E9490
:103A7000182EF50146895789208D318DC601B40174
:103A80000E94352D87FDA0C0F50142895389248904
:103A90003589C601B4010E94352D87FD95C0898105
:103AA0009A819301281B390BC601B40140E30E949F
:103AB000542B87FD89C0C501B601A30194010E9462
:103AC000162287FD81C0E980FA80C601B40142E078
:103AD00003E010E020E030E00E94102C87FD74C06D
:103AE00089819A8101979A83898397FD6DC08C0D96
:103AF0009D1DF5012189FC012083C601B40144E02C
:103B000021E030E00E94542B87FD5EC0C601B40165
:103B100042E004EE11E020E030E00E94102C87FD2E
:103B200053C0F5010585168527853089C601B40186
:103B300042E00E94102C87FD47C089819A8197013D
:103B4000281B390BC601B40140E30E94542B87FDAA
:103B50003BC0F501008110E020E030E0C6014E01DD
:103B60000894811C911CB40142E00E94102C87FD36
:103B70002BC089819A819301281B390BC601B4019E
:103B800040E30E94542B87FD1FC069817A81A30105
:103B9000461B570BF20151834083F501818980FF59
:103BA00005C06C0D7D1DC5010E941C2369817A81B1
:103BB000161617065CF46C0D7D1DF20140815181D3
:103BC000C6010E941CC202C08FEF01C080E00F90AE
:103BD0000F90CF91DF911F910F91FF90EF90DF90A9
:103BE000CF90BF90AF909F908F907F906F905F909D
:103BF0004F9008956F927F928F929F92AF92BF9253
:103C0000CF92DF92EF92FF920F931F93DF93CF93A8
:103C1000CDB7DEB727970FB6F894DEBF0FBECDBF86
:103C20006C015B017A0149018E010E5F1F4F980103
:103C30000E94DA2787FD92C084E0682E712C6C0EFA
:103C40007D1EC601B501A70193010E94F52787FDDE
:103C500085C08C819D81AE81BF81F4018587968767
:103C6000A787B08BC601B501A70193010E94F52774
:103C700087FD74C0C601B501A7019E012F5F3F4FAC
:103C80000E94852787FD6AC08981843009F066C05B
:103C90008A819B818130910509F060C0D701ED9147
:103CA000FC911197EC0DFD1D8081F401818B8D91AC
:103CB0009C911197019611969C938E93818980FD1A
:103CC00002C081FD4BC0C601B501A7019E012C5F5A
:103CD0003F4F0E94F52787FD41C08C819D81AE81B9
:103CE000BF8183309105A105B105C1F5C601B501BC
:103CF000A70194010E943E208F3F81F1833061F142
:103D0000C601B501A7019E012E5F3F4F0E94DA2731
:103D100087FD24C094012E5E3F4F84010C5E1F4F2F
:103D2000C601B501A7010E94EE2887FD17C09401C6
:103D30002A5E3F4F8401085E1F4FC601B501A701EF
:103D40000E94EE2887FD0AC094012F5F3F4FC601F5
:103D5000B501A7010E944A2A80E001C08FEF279693
:103D60000FB6F894DEBF0FBECDBFCF91DF911F918C
:103D70000F91FF90EF90DF90CF90BF90AF909F900A
:103D80008F907F906F9008952F923F924F925F9205
:103D90006F927F928F929F92AF92BF92CF92DF925B
:103DA000EF92FF920F931F93CF93DF93EC014B01A0
:103DB0003A01290189898370898B0E94B02FFC0107
:103DC00080819181A281B3818A8B9B8BAC8BBD8BCF
:103DD000CE01B401A30192010E94131D882379F042
:103DE00029843A841A86198681E08F831886CE0149
:103DF000B401A30192010E94131D3A86298680E036
:103E0000DF91CF911F910F91FF90EF90DF90CF90B6
:103E1000BF90AF909F908F907F906F905F904F90EA
:103E20003F902F9008954F925F926F927F928F9262
:103E30009F92AF92BF92CF92DF92EF92FF920F9339
:103E40001F93DF93CF93CDB7DEB7C859D0400FB6DD
:103E5000F894DEBF0FBECDBF3C012B015A018E018D
:103E60000F5F1F4F80E4F80111928A95E9F70E94D5
:103E7000B82FF801282F392FD90180E10D90019238
:103E80008150E1F78E010F5F1F4F91E4892E912C35
:103E90008C0E9D1EF80196E3808189278193E81599
:103EA000F905D1F781E4E82EF12CEC0EFD1EC701D7
:103EB0000E945140C7016E010894C11CD11CB6017B
:103EC00040E450E00E947B40C701B301A2010E9480
:103ED0007B40C701B5010E94434180E4F601119285
:103EE0008A95E9F70E94B82FF601282F392FD901BA
:103EF00080E10D9001928150E1F79CE5F80180810D
:103F0000892781938F01E815F905C1F78E010F5BB1
:103F10001F4FC8010E945140C801BE016F5F7F4F13
:103F200040E450E00E947B40C801B50140E150E010
:103F30000E947B40C801B5010E944341C856DF4F33
:103F40000FB6F894DEBF0FBECDBFCF91DF911F91AA
:103F50000F91FF90EF90DF90CF90BF90AF909F9028
:103F60008F907F906F905F904F900895EF92FF92A7
:103F70000F931F93CF93DF93EC018B017A01FA012A
:103F800080819181A281B3810196A11DB11D8083A1
:103F90009183A283B383898982FF23C0CE010196D6
:103FA0000E945D2F198A88EA8A8380E090E00E944F
:103FB000392F9A8789870097A1F0FC01118300832C
:103FC000E985FA8581E48283E985FA85E7018881BC
:103FD0009981AA81BB8183839483A583B68380E082
:103FE00001C08FEFDF91CF911F910F91FF90EF9064
:103FF00008958F929F92AF92BF92CF92DF92EF92ED
:10400000FF920F931F93DF93CF93CDB7DEB7C55FBA
:10401000D0400FB6F894DEBF0FBECDBF6B014A0192
:104020005901780119821A821B821C828E010B5F52
:104030001F4FB8010E949C48C401B501A701980117
:1040400086017E010894E11CF11CCC24C3940E94DB
:10405000524380E0CB50DF4F0FB6F894DEBF0FBE67
:10406000CDBFCF91DF911F910F91FF90EF90DF9027
:10407000CF90BF90AF909F908F9008954F925F9296
:104080006F927F928F929F92AF92BF92CF92DF9268
:10409000EF92FF920F931F93DF93CF93CDB7DEB7CD
:1040A000C650D1400FB6F894DEBF0FBECDBF4C0155
:1040B0006B015A017901A2E06A2E712C6C0E7D1EF3
:1040C0009E012F5F3F4F83010E94852787FD84C19A
:1040D0008981843009F080C1C401B601A501930132
:1040E0000E94DA2787FD78C19701265E3F4F87013E
:1040F000045E1F4FC401B601A5010E94EE2887FD92
:104100006BC19701225E3F4FC401B601A5010E9419
:10411000F52787FD61C197012E5D3F4FC401B601B0
:10412000A5010E94F52787FD57C197012A5D3F4FE2
:104130008701085D1F4FC401B601A5010E94EE284A
:1041400087FD4AC19701265D3F4F8701045D1F4FE0
:10415000C401B601A5010E94EE2887FD3DC197016B
:10416000225D3F4F8701005D1F4FC401B601A501CD
:104170000E94EE2887FD30C1D70151968C9151974E
:1041800081FF45C1C401B601A5019E012F5F3F4FCC
:1041900083010E94852787FD1FC18981843009F032
:1041A0001BC1F501808191819601281B390BC90142
:1041B0002A813B812817390709F00EC128C1D70190
:1041C0005A960D911C915B970E94B02FFC01608064
:1041D00071800E94B02FDC0112964D915C91139773
:1041E000C801B3010E9406C2009731F0C70169E619
:1041F00074E048E150E1A4C0F70100A511A50E94B8
:10420000B32FDC010D900020E9F71197A81BB90B23
:104210000A171B0781F4D70196960D911C91979769
:104220000E94B32FBC01F70140A551A5C8010E940F
:1042300006C2009731F0C7016BE574E044E250E13B
:104240007FC0D70151968C91519780FF66C0F701CE
:1042500084A595A58C30910549F532A523A5DE01ED
:104260001696A901852F942FFC018CE001900D92E8
:104270008150E1F7E32FF22F8CE0DF011D928A9548
:10428000E9F78E010A5E1F4FC401B601A8010E9422
:10429000131FCE010696B8014CE050E00E9406C202
:1042A000009721F08AE094E00E946EC2F701468CEC
:1042B000578C60A071A00E94BD1A4616570668066A
:1042C000790609F5D70192960D911C9193970E945A
:1042D000941A24E630E040E050E00E94DEBF021B6A
:1042E000130B17FF03C0109501951F4F07391105D8
:1042F00054F40E94BD1A6F3FBFEF7B07BFEF8B07DF
:10430000BFE79B0730F0C7016DE474E040E250E185
:1043100017C0F701818981FD06C0C70162E974E019
:1043200048E250E10DC0D701D0968D919C91D19774
:104330008830910551F0C70165E874E044E150E12F
:104340000E94B61F87FF4AC047C0F701468D578DB0
:1043500060A171A1CE0106960E94AA2FD701929664
:104360004D915D916D917C919597CE010A960E9439
:10437000AA2FDE011E96F70136A527A5832F922FBF
:10438000FC0188E001900D928150E1F70E94BB2F63
:10439000D5010D911C91800E911E1A821B821C82E8
:1043A0001D82F6E1EF2EF12CEC0EFD1EB7010E94EE
:1043B0009C48A601401B510BC401B40197018E011A
:1043C0000A5F1F4FE2E0EE2EF12CEC0EFD1ECC2416
:1043D0000E94524380E003C08FEF01C083E0CA5FB8
:1043E000DE4F0FB6F894DEBF0FBECDBFCF91DF9189
:1043F0001F910F91FF90EF90DF90CF90BF90AF9003
:104400009F908F907F906F905F904F900895F701ED
:10441000048D158D0E94B02FDC0112968D919C9118
:1044200013970817190709F4CACEE0CE8F929F920E
:10443000AF92BF92CF92DF92EF92FF920F931F93B2
:10444000DF93CF93CDB7DEB760970FB6F894DEBF9A
:104450000FBECDBF7C015B014A0169010E94B02FF4
:10446000FC0180819181A281B381F701828F938FBA
:10447000A48FB58F0E94BD1AF701668F778F80A336
:1044800091A30E94941A24E630E040E050E00E949C
:10449000DEBFF70122A333A344A355A3818981FF83
:1044A00050C0468D578D60A171A1CE0101960E942A
:1044B000AA2FF70142A153A164A175A1CE010596CF
:1044C0000E94AA2FF70106A517A50E94781BAB0131
:1044D000BC01C8010E94AA2FF70106A517A50E94DA
:1044E0008F1BAB01BC01C8010E94AA2FDE011996E7
:1044F000F70136A527A5832F922FFC0188E00190B4
:104500000D928150E1F70E94BB2FF601408151814D
:104510009501240F351F8401041B150BBE016F5F2D
:104520007F4FA9010E94F91FF601808191819401BA
:10453000281B390BC501B60144E00E94542B87FDAE
:1045400067C0F60180809180F70146A557A520A994
:1045500031A9C501B6010E94352D87FD59C0F7016B
:1045600042A553A524A535A5C501B6010E94352D48
:1045700087FD4EC0F6018081918102968A0D9B1DB8
:10458000F70193A782A746A157A120A531A5C50190
:10459000B6010E94352D87FD3BC0F70102A113A192
:1045A00024A135A1C501B60142E00E94102C87FD6F
:1045B0002FC0F701068D178D20A131A1C501B601CD
:1045C00042E00E94102C87FD23C0F701428D538DDD
:1045D000248D358DC501B6010E94352D87FD18C08B
:1045E000F601808191819401281B390BC501B60128
:1045F00040E30E94542B87FD0BC0F601808191811E
:104600009401281B390BC501B60144E00E94542BCC
:1046100080E060960FB6F894DEBF0FBECDBFCF919D
:10462000DF911F910F91FF90EF90DF90CF90BF909F
:10463000AF909F908F900895EF92FF920F931F93EA
:10464000DF93CF93CDB7DEB760970FB6F894DEBF98
:104650000FBECDBF8C01CB01BA017E010894E11CD5
:10466000F11CA7010E94131FF80132A523A5832F77
:10467000922FDC01F7018CE001900D928150E1F75F
:1046800060960FB6F894DEBF0FBECDBFCF91DF911D
:104690001F910F91FF90EF9008954F925F927F923C
:1046A0008F929F92AF92BF92CF92DF92EF92FF9242
:1046B0000F931F93DF93CF93CDB7DEB727970FB636
:1046C000F894DEBF0FBECDBF8C01FC01878188232B
:1046D00009F0BCC08181813A29F1823A20F4803A04
:1046E00009F0B9C006C0833AD1F1883A09F0B3C0E5
:1046F000B0C0F801E184F284CC24DD240FC008941A
:10470000C11CD11CC7010E942625009721F4F80185
:1047100080818823C9F0F701E780F084E114F10477
:1047200071F794C0F801E184F284CC24DD2413C035
:104730000894C11CD11CC7010E94BB25009741F4FD
:10474000F8018081882321F482E08783C0867EC0BF
:10475000F701E780F084E114F10451F777C0F80124
:10476000C184D284772488249924EE24FF242E0146
:104770000894411C511C44C07394D201F60187E097
:1047800001900D928150E1F7C2010E9426255C0143
:10479000009731F4F8018081882349F582E029C02F
:1047A000E114F10441F480E090E0B5010E940F2F84
:1047B0007C014C0105C0C401B5010E940F2F4C01C2
:1047C0009B81F6018281981741F0F801808188234E
:1047D00011F483E00EC087E00BC0F501808187FFF4
:1047E0000CC0F8018081882311F484E002C081E1CB
:1047F000F8018783F801708607C0F601C780D0846E
:10480000C114D10409F0B8CFF80187818823D9F405
:10481000C184D2845701882413C08394F501808118
:104820009181B6010E948C26882321F0F8018783AC
:10483000808609C0F601C780D084F501A280B380CC
:10484000C114D10451F7C7010E942A2F82EAF8014E
:10485000828380E001C08FEF27960FB6F894DEBF09
:104860000FBECDBFCF91DF911F910F91FF90EF90C1
:10487000DF90CF90BF90AF909F908F907F905F9090
:104880004F900895FC01809154089091550800972D
:1048900059F4F0935508E0935408F0935708E093C7
:1048A0005608178616860895A0915608B0915708A5
:1048B0001F96FC93EE931E9717861686F093570863
:1048C000E09356080895AF92BF92CF92DF92EF9295
:1048D000FF920F931F93DF93CF9300D0CDB7DEB736
:1048E0006C0159014A8369830E94522FFC0180E1C7
:1048F000DF011D928A95E9F74A816981309709F4B1
:1049000044C011870087F586E4861386128660838B
:10491000A114B10491F1403471F0413438F44430C1
:1049200051F04630F9F0423041F511C0443478F08E
:10493000443419F517C0D5010D900020E9F71197FF
:10494000AA19BB09B783A683B582A48216C0D50174
:104950000D911D912D913C9113970483158326830E
:1049600037830BC0D50112968D919C911397978335
:1049700086838D919C9195838483D282C182438367
:10498000CF010E94422480E001C08FEF0F900F9072
:10499000CF91DF911F910F91FF90EF90DF90CF901B
:1049A000BF90AF900895CF92DF92EF92FF920F9356
:1049B0001F93CF93DF936C018B01EA01790161159D
:1049C0007105E1F02097D1F00E94522FFC01009771
:1049D000A9F0D282C18211870087D387C287E114F0
:1049E000F10419F0F586E48602C080E8808385E052
:1049F0008383CF010E94422480E001C08FEFDF91CA
:104A0000CF911F910F91FF90EF90DF90CF9008957D
:104A100080915408909155089093530880935208C0
:104A2000089581E0209152083091530821153105F5
:104A300009F080E00895E0915208F09153088685CE
:104A40009785909353088093520808950F931F936E
:104A5000CF93DF93EC010E94082551C081819281A0
:104A60000E94B12E8C01E0915208F091530882858A
:104A70009385009751F588819981DC0112962D91DB
:104A80003C9113970217130731F4618172810E94E0
:104A9000B72E0097D9F188819981A80141505040E3
:104AA000FC01228133812F5F3F4F2417350768F0C7
:104AB000E0915208F091530861817281402F41507A
:104AC0000E94D02E009709F440C0E0915208F09166
:104AD000530882859385009781F088819981DC0154
:104AE00012962D913C9113970217130730F46181B0
:104AF00072810E94B72E009749F00E941B25E09119
:104B00005208F0915308309709F0A8CF80915208CD
:104B100090915308009729F480E88A83E0E0F0E060
:104B200024C0DC011896ED91FC911997309779F02B
:104B3000A881B9816D917C911197600F711F1296B8
:104B40004C91401B09958F3F11F481E8E6CFE0912D
:104B50005208F091530824813581468157812B8377
:104B60003C834D835E8383818A83CF01DF91CF9124
:104B70001F910F910895EF92FF920F931F93CF9380
:104B8000DF93EC010E9408258AC0618172818881CF
:104B900099810E94B72E8C01E0915208F091530840
:104BA000818192810E94B12E7C0180915208909166
:104BB0005308DC011A96ED91FC911B973097F1F4A4
:104BC00017FD0CC00115110509F067C0E881F981D6
:104BD000228133812E153F0508F05FC0FC01618101
:104BE00072818881998140E00E94E52EE881F981F7
:104BF00080819181009709F059C084C01016110678
:104C00000CF44BC00115110561F4A881B9816D91B7
:104C10007C9111976E0D7F1D12964C9112974E1933
:104C200003C060E070E040E009958C010097A9F1B5
:104C3000E0915208F091530861817281DC01129673
:104C40004C914E0D888199810E94E52EE881F98171
:104C5000208131812115310509F454C02E0D3F1DED
:104C6000F8016081718142815381C9010E9413C2A0
:104C7000E881F98182819381D80112962D913C912E
:104C80001397820F931F938382838D919C910E942F
:104C90009AC0C8010E94AC2E09C00E941B25E09159
:104CA0005208F0915308309709F06FCF8091520865
:104CB00090915308009719F482E88A8323C0DC019D
:104CC0001896ED91FC911997309769F0A881B981F8
:104CD0006D917C9111976E0D7F1D12964C914E191E
:104CE00009958F3F79F0E0915208F09153082481A3
:104CF0003581468157812B833C834D835E8383813D
:104D00008A8302C0E0E0F0E0CF01DF91CF911F91F4
:104D10000F91FF90EF900895CF92DF92EF92FF9264
:104D20000F931F93DF93CF9300D0CDB7DEB77C01F5
:104D30008B01FC01C484D584C114D104D1F0FB01E2
:104D4000A081B181FC0181819281FC0182819381EA
:104D50006D917C911197680F791F12964C91481BA9
:104D6000F8010381148125813681C701F601099577
:104D700049C0FB018281863071F0873028F482308F
:104D800091F18430E1F507C0803429F08034B8F126
:104D90008434A8F528C0F701808186FF06C084818D
:104DA0009581009711F00E949AC0F80145815681C3
:104DB000F70146835783F8018581968149835A8399
:104DC0000E9400C0F7019583848349815A8100972E
:104DD000C1F0F801638174810E9413C2F7018081E0
:104DE000806480830AC0F80183819481A581B681A3
:104DF000F70184839583A683B78380E003C083E0B3
:104E000001C08FEF0F900F90CF91DF911F910F9105
:104E1000FF90EF90DF90CF900895FA01408151818B
:104E20004617570700F5840F951FDC018C918534D8
:104E300048F4803478F48130C0F0873058F0803303
:104E4000A1F408C0803A88F0843A20F0982F955A4F
:104E5000933058F4D9018C9380819181019691838C
:104E6000808380E008958FEF08958FEF08950F936A
:104E70001F93CF93DF93DA01E9012D913C911197B4
:104E800026173707E0F5AC01420F531FFA014081A6
:104E900047FD0AC0488319828D919C911197019614
:104EA00011969C938E9327C04F772F5F3F4F11969B
:104EB0003C932E93433008F5198218821AC02D9125
:104EC0003C911197415026173707C8F4280F391F16
:104ED000F9012081188100E0F801E20FF11DF9834A
:104EE000E8832D913C9111972F5F3F4F11963C9392
:104EF0002E93442321F780E003C081E001C08FEFAF
:104F0000DF91CF911F910F910895CF92DF92EF9291
:104F1000FF920F931F93CF93DF93EC017B016A0104
:104F20000E940D278F3F41F0CE01B701A6019801E5
:104F30000E94372780E001C08FEFDF91CF911F9152
:104F40000F91FF90EF90DF90CF900895CF92DF9276
:104F5000EF92FF920F931F93DF93CF9300D00F92A6
:104F6000CDB7DEB76B017A019E012F5F3F4F8E01F7
:104F70000E5F1F4F0E94852787FD0DC089818033FA
:104F800051F4F70180819181C81AD90A8A819B81E5
:104F90008C159D0511F08FEF01C080E00F900F90F0
:104FA0000F90CF91DF911F910F91FF90EF90DF90C5
:104FB000CF9008950F931F93DF93CF930F92CDB7A8
:104FC000DEB789019E012F5F3F4F0E94852787FD35
:104FD00003C08981803311F08FEF01C080E00F9012
:104FE000CF91DF911F910F9108958F929F92AF9271
:104FF000BF92CF92DF92EF92FF920F931F93DF93B6
:10500000CF9300D00F92CDB7DEB76C014B017A0180
:1050100059019E012F5F3F4F8E010E5F1F4F0E946F
:10502000852787FD58C08981823009F054C08A8164
:105030009B81009709F44FC0D7012D913C911197A6
:105040000197820F931F8815990508F044C02C0D15
:105050003D1DF901808187FF03C06FEF70E002C042
:1050600060E070E070E080E090E021E031E0A901D4
:105070000E9498BFD5016D937D938D939C93139758
:105080001FC0D701ED91FC91EC0DFD1D2081F501B4
:1050900080819181A281B381BA2FA92F982F88276F
:1050A000820F911DA11DB11D80839183A283B383C3
:1050B000D7018D919C911197019611969C938E9397
:1050C0008A819B819C01215030403B832A83009739
:1050D000C1F680E001C08FEF0F900F900F90CF913D
:1050E000DF911F910F91FF90EF90DF90CF90BF90D5
:1050F000AF909F908F9008958F929F92AF92BF92A2
:10510000CF92DF92EF92FF920F931F93DF93CF9393
:1051100000D00F92CDB7DEB74C016B017A01590177
:105120009E012F5F3F4F8E010E5F1F4F0E9485270C
:1051300087FD43C08981823409F03FC06A817B8149
:1051400061157105D1F1CB010197D7012D913C91EA
:105150001197820F931F8C159D0578F5F50110822C
:1051600011821282138224C0D701ED91FC91E80DC7
:10517000F91D808190E0A0E0B0E0F501208131814F
:1051800042815381542F432F322F2227822B932B7E
:10519000A42BB52B80839183A283B383D7018D91F8
:1051A0009C911197019611969C938E93615070403B
:1051B00061157105C9F680E001C08FEF0F900F9067
:1051C0000F90CF91DF911F910F91FF90EF90DF90A3
:1051D000CF90BF90AF909F908F9008956F927F92E5
:1051E0008F929F92AF92BF92CF92DF92EF92FF92F7
:1051F0000F931F93DF93CF930F92CDB7DEB74C0180
:105200005B017A01390168019E012F5F3F4F0E94C7
:10521000852787FD22C089818430F9F4F701208138
:105220003181C9010197F60140815181840F951F99
:105230008A159B0590F4820E931EF3019182808261
:10524000F70180819181F60120813181820F931FC6
:10525000F7019183808380E001C08FEF0F90CF91A1
:10526000DF911F910F91FF90EF90DF90CF90BF9053
:10527000AF909F908F907F906F9008950F931F93A2
:10528000CF93DF93FC01DA011D921D921D921C92B7
:1052900013978C0180E021C0E80199918E012D9136
:1052A0003D914D915C91139777E0220F331F441F7E
:1052B000551F7A95D1F79F77290F311D411D511D3B
:1052C0002D933D934D935C9313978F5F9F01280F10
:1052D000311DE901988197FF02C08617E8F2DF913E
:1052E000CF911F910F9108958F929F92AF92BF928D
:1052F000CF92DF92EF92FF920F931F93DF93CF93A2
:1053000000D00F92CDB7DEB75C016B017A01490185
:105310009E012F5F3F4F8E010E5F1F4F0E9485271A
:1053200087FD23C08981863001F58A819B810097A2
:10533000E1F0F70120813181280F391FC216D30611
:10534000A0F0F40193838283F701208131812A0D3B
:105350003B1DF40131832083F70120813181280F27
:10536000391F3183208380E001C08FEF0F900F90B1
:105370000F90CF91DF911F910F91FF90EF90DF90F1
:10538000CF90BF90AF909F908F900895CF92DF9273
:10539000EF92FF920F931F93DF93CF9300D00F9262
:1053A000CDB7DEB76B017A019E012F5F3F4F8E01B3
:1053B0000E5F1F4F0E94852787FD1BC029818A81B0
:1053C0009B81253019F4009719F013C0009789F0DC
:1053D000F701808191812A813B81820F931F9C017B
:1053E000215030402C153D0520F49183808380E0CE
:1053F00001C08FEF0F900F900F90CF91DF911F9111
:105400000F91FF90EF90DF90CF9008950F931F932F
:10541000CF93DF93F9019801EA01A881B981A6171A
:10542000B70790F5A80FB91FAC91A083E881F98167
:10543000E80FF91FE081E63021F1E73038F4E4307D
:1054400091F0E530B0F4E230F9F40AC0E43428F425
:10545000E13490F4E034C1F406C0E434A9F411C09E
:105460000E94F5270BC089010E5F1F4F0E94EE2896
:1054700005C00E94C62902C00E947C28880F880BA4
:1054800004C00E947429FACF8FEFDF91CF911F9152
:105490000F9108954F925F926F927F928F929F9299
:1054A000AF92BF92CF92DF92EF92FF920F931F9332
:1054B000DF93CF9300D000D000D0CDB7DEB74C0142
:1054C0006B017A0139012E010894411C511C8201A3
:1054D0000E94852787FD88C0F70180819181960110
:1054E000281B390BC90129813A812817390709F08E
:1054F0007BC093012E5F3F4FC401B601A7010E94FC
:10550000F52787FD71C08E010D5F1F4FC401B601E5
:10551000A70198010E94F52787FD66C08B81F301E2
:105520008683C401B601A70198010E94F52787FD73
:105530005BC08B81F3018783F70180819181F30147
:1055400093878287C401B601A7010E94A62787FD21
:105550004BC0F30111861086AA24BB24C201542C2F
:10556000492E38C0C401B601A701252D342D0E9453
:10557000DA2787FD39C0F30180859185009749F4CA
:1055800080E090E00E94392F5C01F30191878087D1
:1055900004C0C5010E94392F5C01A114B10411F1AE
:1055A0000E94A12E9C01F50191838083C401B60164
:1055B000A7010E94742987FD17C095012E5F3F4FF8
:1055C00085010D5F1F4FC401B601A7010E94062A85
:1055D00087FD0AC0F701808191818C159D0510F22D
:1055E00080E003C082E001C08FEF26960FB6F894EA
:1055F000DEBF0FBECDBFCF91DF911F910F91FF9006
:10560000EF90DF90CF90BF90AF909F908F907F9062
:105610006F905F904F900895FB014F3F5105E1F06F
:10562000D8F020813181235030403183208337FDF1
:1056300037C0280F391F62E8D9016C93A081B1816E
:10564000A80FB91F11965C9311970190F081E02D7E
:10565000E80FF91F428322C0208131814038510573
:1056600090F0225030403183208337FD19C0280F3D
:10567000391F61E8D9016C930190F081E02DE80FAA
:10568000F91F41830BC0215030403183208337FD07
:1056900009C0820F931F4F77FC01408380E008957B
:1056A0008FEF08958FEF0895FF920F931F93CF937D
:1056B000DF938C01EB01F42EA9010E940C2B87FDD6
:1056C0000DC08881998101979983888397FD06C0D1
:1056D000080F191FF801F08280E001C08FEFDF9101
:1056E000CF911F910F91FF900895603020E07207D5
:1056F00020E0820720E19207B8F4603020E07207D2
:1057000020E2820720E0920788F4603020E47207EC
:1057100020E0820720E0920758F460387105810587
:10572000910540F082E0089585E0089584E00895B1
:1057300083E0089581E00895EF92FF920F931F9305
:10574000CF93DF937B018C01EA010E94752B91E0DE
:105750009883A82FA1502A2F332727FD3095B90110
:10576000E3E0660F771FEA95E1F7621B730B90E0A9
:10577000FC01E21BF30B3197EC0FFD1FC80FD91F83
:1057800021978E2D8F7714C0AA2369F0A801970165
:10579000062E04C056954795379527950A94D2F75B
:1057A0002068208301C08883A150675070403196E3
:1057B000A7FFEACF80E0DF91CF911F910F91FF907B
:1057C000EF900895CF92DF92EF92FF920F931F9385
:1057D000CF93DF937C018B01E901FB0120813181B3
:1057E0002C1B3D0B3183208337FD10C0280F391F40
:1057F000C901BA01AE010E9413C2C701B80146E057
:105800009E010E94542B880F880B01C08FEFDF91FF
:10581000CF911F910F91FF90EF90DF90CF9008955F
:105820007F928F929F92AF92BF92CF92DF92EF9230
:10583000FF920F931F93CF93DF935C01FB01F42E34
:1058400080809180C801D9019C01AD012050304079
:1058500040405F4F203060E0360760E0460762E07E
:105860005607E8F49C01AD01205030484F4F5F4F80
:10587000203060E0360761E0460760E0560790F4AC
:105880009C01AD0120583F4F4F4F5F4F2F3F3105D7
:105890004105510551F048F062E070E008C064E055
:1058A00070E005C063E070E002C061E070E0940168
:1058B000261B370B3183208337FD3DC0E62EEA944B
:1058C000CE2CDD24C7FCD094002711270C191D090C
:1058D00033E0CC0CDD1C3A95E1F7762E761AC081C8
:1058E000D181CA0DDB1DC60FD71FC00FD11F219755
:1058F0009C01AD010C2C04C0569547953795279512
:105900000A94D2F72883EA940F5F1F4F28EF3FEFE6
:10591000C20ED31E272D2E0D27FFE1CF808191814E
:105920009401281B390BC501BF014F2D0E94542B38
:10593000880F880B01C08FEFDF91CF911F910F91DE
:10594000FF90EF90DF90CF90BF90AF909F908F909F
:105950007F9008957F928F929F92AF92BF92CF9245
:10596000DF92EF92FF920F931F93CF93DF935C012F
:10597000FB01F42E80809180D901C8018070907065
:10598000A0700097A105B105A9F4D901C8018070E4
:105990009070B0700097A105B10579F4D901C801E4
:1059A0008070A070B0700097A105B10549F042E089
:1059B00050E008C044E050E005C043E050E002C0C1
:1059C00041E050E0C401841B950B9183808397FDD7
:1059D0003DC0E42EEA94CE2CDD24C7FCD09466278B
:1059E00077276C197D09A3E0CC0CDD1CAA95E1F7A3
:1059F000742E741AC081D181CA0DDB1DC40FD51F4E
:105A0000C60FD71F2197D901C8010C2C04C0B69529
:105A1000A795979587950A94D2F78883EA946F5F44
:105A20007F4F88EF9FEFC80ED91E872D8E0D87FF01
:105A3000E1CF808191819401281B390BC501BF0101
:105A40004F2D0E94542B880F880B01C08FEFDF91E0
:105A5000CF911F910F91FF90EF90DF90CF90BF906B
:105A6000AF909F908F907F900895CF92DF92EF92AA
:105A7000FF920F931F93CF93DF937C018B01E9017A
:105A8000FB01208131812C1B3D0B3183208337FDAD
:105A900010C0280F391FC901BA01AE010E9413C2FC
:105AA000C701B80144E09E010E94542B880F880B67
:105AB00001C08FEFDF91CF911F910F91FF90EF9079
:105AC000DF90CF900895DA010D900020E9F79D0155
:105AD00021503040241B350B0E94352D0895AF9284
