:100000000C94BF190C94DE190C94DE190C94DE19B3
:100010000C94DE190C94DE190C94E0530C94DE1948
:100020000C94DE190C94DE190C94DE190C94DE1974
:100030000C94DE190C94DE190C94DE190C94DE1964
:100040000C94DE190C94DE190C94DE190C94DE1954
:100050000C9466540C94EA4D0C94DE190C94DE1941
:100060000C94DE190C9496900C94DE190C94DE1905
:100070000C94DE190C94DE190C94DE190C94DE1924
:100080000C94A8910C94DE190C94DE190C94DE19D2
:100090000C94C5900C94DE190C94DE190C94DE19A6
:1000A0000C94DE190C94DE190C94DE190C94DE19F4
:1000B0000C94DE190C94DE190C94DE190C94DE19E4
:1000C0000C94DE190C94DE190C94DE19C6A563633A
:1000D000F8847C7CEE997777F68D7B7BFF0DF2F2CE
:1000E000D6BD6B6BDEB16F6F9154C5C560503030BB
:1000F00002030101CEA96767567D2B2BE719FEFE8F
:10010000B562D7D74DE6ABABEC9A76768F45CACAC7
:100110001F9D82828940C9C9FA877D7DEF15FAFA51
:10012000B2EB59598EC94747FB0BF0F041ECADAD2E
:10013000B367D4D45FFDA2A245EAAFAF23BF9C9CB6
:1001400053F7A4A4E49672729B5BC0C075C2B7B7A4
:10015000E11CFDFD3DAE93934C6A26266C5A363663
:100160007E413F3FF502F7F7834FCCCC685C3434D7
:1001700051F4A5A5D134E5E5F908F1F1E2937171E7
:10018000AB73D8D8625331312A3F1515080C0404DB
:100190009552C7C7466523239D5EC3C330281818F0
:1001A00037A196960A0F05052FB59A9A0E090707EB
:1001B000243612121B9B8080DF3DE2E2CD26EBEB62
:1001C0004E6927277FCDB2B2EA9F7575121B0909C8
:1001D0001D9E838358742C2C342E1A1A362D1B1B0B
:1001E000DCB26E6EB4EE5A5A5BFBA0A0A4F652527B
:1001F000764D3B3BB761D6D67DCEB3B3527B292932
:10020000DD3EE3E35E712F2F13978484A6F55353ED
:10021000B968D1D100000000C12CEDED4060202074
:10022000E31FFCFC79C8B1B1B6ED5B5BD4BE6A6A72
:100230008D46CBCB67D9BEBE724B393994DE4A4A64
:1002400098D44C4CB0E85858854ACFCFBB6BD0D02F
:10025000C52AEFEF4FE5AAAAED16FBFB86C543437F
:100260009AD74D4D66553333119485858ACF4545D0
:10027000E910F9F904060202FE817F7FA0F05050D8
:1002800078443C3C25BA9F9F4BE3A8A8A2F3515168
:100290005DFEA3A380C04040058A8F8F3FAD929240
:1002A00021BC9D9D70483838F104F5F563DFBCBC76
:1002B00077C1B6B6AF75DADA42632121203010106B
:1002C000E51AFFFFFD0EF3F3BF6DD2D2814CCDCD09
:1002D00018140C0C26351313C32FECECBEE15F5F32
:1002E00035A2979788CC44442E3917179357C4C426
:1002F00055F2A7A7FC827E7E7A473D3DC8AC646478
:10030000BAE75D5D322B1919E6957373C0A0606082
:10031000199881819ED14F4FA37FDCDC4466222255
:10032000547E2A2A3BAB90900B8388888CCA464621
:10033000C729EEEE6BD3B8B8283C1414A779DEDEDB
:10034000BCE25E5E161D0B0BAD76DBDBDB3BE0E05B
:1003500064563232744E3A3A141E0A0A92DB494904
:100360000C0A0606486C2424B8E45C5C9F5DC2C29B
:10037000BD6ED3D343EFACACC4A6626239A89191F1
:1003800031A49595D337E4E4F28B7979D532E7E758
:100390008B43C8C86E593737DAB76D6D018C8D8DB8
:1003A000B164D5D59CD24E4E49E0A9A9D8B46C6CA5
:1003B000ACFA5656F307F4F4CF25EAEACAAF6565FE
:1003C000F48E7A7A47E9AEAE101808086FD5BABA3B
:1003D000F08878784A6F25255C722E2E38241C1CF4
:1003E00057F1A6A673C7B4B49751C6C6CB23E8E8A5
:1003F000A17CDDDDE89C74743E211F1F96DD4B4B14
:1004000061DCBDBD0D868B8B0F858A8AE090707094
:100410007C423E3E71C4B5B5CCAA666690D84848C9
:1004200006050303F701F6F61C120E0EC2A3616166
:100430006A5F3535AEF9575769D0B9B917918686D5
:100440009958C1C13A271D1D27B99E9ED938E1E1AF
:10045000EB13F8F82BB3989822331111D2BB6969CA
:10046000A970D9D907898E8E33A794942DB69B9BFA
:100470003C221E1E15928787C920E9E98749CECE06
:10048000AAFF555550782828A57ADFDF038F8C8C7A
:1004900059F8A1A1098089891A170D0D65DABFBF26
:1004A000D731E6E684C64242D0B8686882C341418B
:1004B00029B099995A772D2D1E110F0F7BCBB0B013
:1004C000A8FC54546DD6BBBB2C3A161663C6A56364
:1004D0007CF8847C77EE99777BF68D7BF2FF0DF2CA
:1004E0006BD6BD6B6FDEB16FC59154C530605030B7
:1004F0000102030167CEA9672B567D2BFEE719FE8B
:10050000D7B562D7AB4DE6AB76EC9A76CA8F45CAC3
:10051000821F9D82C98940C97DFA877DFAEF15FA4D
:1005200059B2EB59478EC947F0FB0BF0AD41ECAD2A
:10053000D4B367D4A25FFDA2AF45EAAF9C23BF9CB2
:10054000A453F7A472E49672C09B5BC0B775C2B7A0
:10055000FDE11CFD933DAE93264C6A26366C5A365F
:100560003F7E413FF7F502F7CC834FCC34685C34D3
:10057000A551F4A5E5D134E5F1F908F171E29371E3
:10058000D8AB73D831625331152A3F1504080C04D7
:10059000C79552C723466523C39D5EC318302818EC
:1005A0009637A196050A0F059A2FB59A070E0907E7
:1005B00012243612801B9B80E2DF3DE2EBCD26EB5E
:1005C000274E6927B27FCDB275EA9F7509121B09C4
:1005D000831D9E832C58742C1A342E1A1B362D1B07
:1005E0006EDCB26E5AB4EE5AA05BFBA052A4F65277
:1005F0003B764D3BD6B761D6B37DCEB329527B292E
:10060000E3DD3EE32F5E712F8413978453A6F553E9
:10061000D1B968D100000000EDC12CED2040602070
:10062000FCE31FFCB179C8B15BB6ED5B6AD4BE6A6E
:10063000CB8D46CBBE67D9BE39724B394A94DE4A60
:100640004C98D44C58B0E858CF854ACFD0BB6BD02B
:10065000EFC52AEFAA4FE5AAFBED16FB4386C5437B
:100660004D9AD74D3366553385119485458ACF45CC
:10067000F9E910F9020406027FFE817F50A0F050D4
:100680003C78443C9F25BA9FA84BE3A851A2F35164
:10069000A35DFEA34080C0408F058A8F923FAD923C
:1006A0009D21BC9D38704838F5F104F5BC63DFBC72
:1006B000B677C1B6DAAF75DA214263211020301067
:1006C000FFE51AFFF3FD0EF3D2BF6DD2CD814CCD05
:1006D0000C18140C13263513ECC32FEC5FBEE15F2E
:1006E0009735A2974488CC44172E3917C49357C422
:1006F000A755F2A77EFC827E3D7A473D64C8AC6474
:100700005DBAE75D19322B1973E6957360C0A0607E
:10071000811998814F9ED14FDCA37FDC2244662251
:100720002A547E2A903BAB90880B8388468CCA461D
:10073000EEC729EEB86BD3B814283C14DEA779DED7
:100740005EBCE25E0B161D0BDBAD76DBE0DB3BE057
:10075000326456323A744E3A0A141E0A4992DB4900
:10076000060C0A0624486C245CB8E45CC29F5DC297
:10077000D3BD6ED3AC43EFAC62C4A6629139A891ED
:100780009531A495E4D337E479F28B79E7D532E754
:10079000C88B43C8376E59376DDAB76D8D018C8DB4
:1007A000D5B164D54E9CD24EA949E0A96CD8B46CA1
:1007B00056ACFA56F4F307F4EACF25EA65CAAF65FA
:1007C0007AF48E7AAE47E9AE08101808BA6FD5BA37
:1007D00078F08878254A6F252E5C722E1C38241CF0
:1007E000A657F1A6B473C7B4C69751C6E8CB23E8A1
:1007F000DDA17CDD74E89C741F3E211F4B96DD4B10
:10080000BD61DCBD8B0D868B8A0F858A70E0907090
:100810003E7C423EB571C4B566CCAA664890D848C5
:1008200003060503F6F701F60E1C120E61C2A36162
:10083000356A5F3557AEF957B969D0B986179186D1
:10084000C19958C11D3A271D9E27B99EE1D938E1AB
:10085000F8EB13F8982BB3981122331169D2BB69C6
:10086000D9A970D98E07898E9433A7949B2DB69BF6
:100870001E3C221E87159287E9C920E9CE8749CE02
:1008800055AAFF5528507828DFA57ADF8C038F8C76
:10089000A159F8A1890980890D1A170DBF65DABF22
:1008A000E6D731E64284C64268D0B8684182C34187
:1008B0009929B0992D5A772D0F1E110FB07BCBB00F
:1008C00054A8FC54BB6DD6BB162C3A166363C6A560
:1008D0007C7CF8847777EE997B7BF68DF2F2FF0DC6
:1008E0006B6BD6BD6F6FDEB1C5C5915430306050B3
:1008F000010102036767CEA92B2B567DFEFEE71987
:10090000D7D7B562ABAB4DE67676EC9ACACA8F45BF
:1009100082821F9DC9C989407D7DFA87FAFAEF1549
:100920005959B2EB47478EC9F0F0FB0BADAD41EC26
:10093000D4D4B367A2A25FFDAFAF45EA9C9C23BFAE
:10094000A4A453F77272E496C0C09B5BB7B775C29C
:10095000FDFDE11C93933DAE26264C6A36366C5A5B
:100960003F3F7E41F7F7F502CCCC834F3434685CCF
:10097000A5A551F4E5E5D134F1F1F9087171E293DF
:10098000D8D8AB733131625315152A3F0404080CD3
:10099000C7C7955223234665C3C39D5E18183028E8
:1009A000969637A105050A0F9A9A2FB507070E09E3
:1009B0001212243680801B9BE2E2DF3DEBEBCD265A
:1009C00027274E69B2B27FCD7575EA9F0909121BC0
:1009D00083831D9E2C2C58741A1A342E1B1B362D03
:1009E0006E6EDCB25A5AB4EEA0A05BFB5252A4F673
:1009F0003B3B764DD6D6B761B3B37DCE2929527B2A
:100A0000E3E3DD3E2F2F5E71848413975353A6F5E5
:100A1000D1D1B96800000000EDEDC12C202040606C
:100A2000FCFCE31FB1B179C85B5BB6ED6A6AD4BE6A
:100A3000CBCB8D46BEBE67D93939724B4A4A94DE5C
:100A40004C4C98D45858B0E8CFCF854AD0D0BB6B27
:100A5000EFEFC52AAAAA4FE5FBFBED16434386C577
:100A60004D4D9AD7333366558585119445458ACFC8
:100A7000F9F9E910020204067F7FFE815050A0F0D0
:100A80003C3C78449F9F25BAA8A84BE35151A2F360
:100A9000A3A35DFE404080C08F8F058A92923FAD38
:100AA0009D9D21BC38387048F5F5F104BCBC63DF6E
:100AB000B6B677C1DADAAF75212142631010203063
:100AC000FFFFE51AF3F3FD0ED2D2BF6DCDCD814C01
:100AD0000C0C181413132635ECECC32F5F5FBEE12A
:100AE000979735A2444488CC17172E39C4C493571E
:100AF000A7A755F27E7EFC823D3D7A476464C8AC70
:100B00005D5DBAE71919322B7373E6956060C0A07A
:100B1000818119984F4F9ED1DCDCA37F222244664D
:100B20002A2A547E90903BAB88880B8346468CCA19
:100B3000EEEEC729B8B86BD31414283CDEDEA779D3
:100B40005E5EBCE20B0B161DDBDBAD76E0E0DB3B53
:100B5000323264563A3A744E0A0A141E494992DBFC
:100B600006060C0A2424486C5C5CB8E4C2C29F5D93
:100B7000D3D3BD6EACAC43EF6262C4A6919139A8E9
:100B8000959531A4E4E4D3377979F28BE7E7D53250
:100B9000C8C88B4337376E596D6DDAB78D8D018CB0
:100BA000D5D5B1644E4E9CD2A9A949E06C6CD8B49D
:100BB0005656ACFAF4F4F307EAEACF256565CAAFF6
:100BC0007A7AF48EAEAE47E908081018BABA6FD533
:100BD0007878F08825254A6F2E2E5C721C1C3824EC
:100BE000A6A657F1B4B473C7C6C69751E8E8CB239D
:100BF000DDDDA17C7474E89C1F1F3E214B4B96DD0C
:100C0000BDBD61DC8B8B0D868A8A0F857070E0908C
:100C10003E3E7C42B5B571C46666CCAA484890D8C1
:100C200003030605F6F6F7010E0E1C126161C2A35E
:100C300035356A5F5757AEF9B9B969D086861791CD
:100C4000C1C199581D1D3A279E9E27B9E1E1D938A7
:100C5000F8F8EB1398982BB3111122336969D2BBC2
:100C6000D9D9A9708E8E0789949433A79B9B2DB6F2
:100C70001E1E3C2287871592E9E9C920CECE8749FE
:100C80005555AAFF28285078DFDFA57A8C8C038F72
:100C9000A1A159F8898909800D0D1A17BFBF65DA1E
:100CA000E6E6D731424284C66868D0B8414182C383
:100CB000999929B02D2D5A770F0F1E11B0B07BCB0B
:100CC0005454A8FCBBBB6DD616162C3AA56363C65C
:100CD000847C7CF8997777EE8D7B7BF60DF2F2FFC2
:100CE000BD6B6BD6B16F6FDE54C5C59150303060AF
:100CF00003010102A96767CE7D2B2B5619FEFEE783
:100D000062D7D7B5E6ABAB4D9A7676EC45CACA8FBB
:100D10009D82821F40C9C989877D7DFA15FAFAEF45
:100D2000EB5959B2C947478E0BF0F0FBECADAD4122
:100D300067D4D4B3FDA2A25FEAAFAF45BF9C9C23AA
:100D4000F7A4A453967272E45BC0C09BC2B7B77598
:100D50001CFDFDE1AE93933D6A26264C5A36366C57
:100D6000413F3F7E02F7F7F54FCCCC835C343468CB
:100D7000F4A5A55134E5E5D108F1F1F9937171E2DB
:100D800073D8D8AB533131623F15152A0C040408CF
:100D900052C7C795652323465EC3C39D28181830E4
:100DA000A19696370F05050AB59A9A2F0907070EDF
:100DB000361212249B80801B3DE2E2DF26EBEBCD56
:100DC0006927274ECDB2B27F9F7575EA1B090912BC
:100DD0009E83831D742C2C582E1A1A342D1B1B36FF
:100DE000B26E6EDCEE5A5AB4FBA0A05BF65252A46F
:100DF0004D3B3B7661D6D6B7CEB3B37D7B29295226
:100E00003EE3E3DD712F2F5E97848413F55353A6E1
:100E100068D1D1B9000000002CEDEDC16020204068
:100E20001FFCFCE3C8B1B179ED5B5BB6BE6A6AD466
:100E300046CBCB8DD9BEBE674B393972DE4A4A9458
:100E4000D44C4C98E85858B04ACFCF856BD0D0BB23
:100E50002AEFEFC5E5AAAA4F16FBFBEDC543438673
:100E6000D74D4D9A5533336694858511CF45458AC4
:100E700010F9F9E906020204817F7FFEF05050A0CC
:100E8000443C3C78BA9F9F25E3A8A84BF35151A25C
:100E9000FEA3A35DC04040808A8F8F05AD92923F34
:100EA000BC9D9D214838387004F5F5F1DFBCBC636A
:100EB000C1B6B67775DADAAF63212142301010205F
:100EC0001AFFFFE50EF3F3FD6DD2D2BF4CCDCD81FD
:100ED000140C0C18351313262FECECC3E15F5FBE26
:100EE000A2979735CC4444883917172E57C4C4931A
:100EF000F2A7A755827E7EFC473D3D7AAC6464C86C
:100F0000E75D5DBA2B191932957373E6A06060C076
:100F100098818119D14F4F9E7FDCDCA36622224449
:100F20007E2A2A54AB90903B8388880BCA46468C15
:100F300029EEEEC7D3B8B86B3C14142879DEDEA7CF
:100F4000E25E5EBC1D0B0B1676DBDBAD3BE0E0DB4F
:100F5000563232644E3A3A741E0A0A14DB494992F8
:100F60000A06060C6C242448E45C5CB85DC2C29F8F
:100F70006ED3D3BDEFACAC43A66262C4A8919139E5
:100F8000A495953137E4E4D38B7979F232E7E7D54C
:100F900043C8C88B5937376EB76D6DDA8C8D8D01AC
:100FA00064D5D5B1D24E4E9CE0A9A949B46C6CD899
:100FB000FA5656AC07F4F4F325EAEACFAF6565CAF2
:100FC0008E7A7AF4E9AEAE4718080810D5BABA6F2F
:100FD000887878F06F25254A722E2E5C241C1C38E8
:100FE000F1A6A657C7B4B47351C6C69723E8E8CB99
:100FF0007CDDDDA19C7474E8211F1F3EDD4B4B9608
:10100000DCBDBD61868B8B0D858A8A0F907070E088
:10101000423E3E7CC4B5B571AA6666CCD8484890BD
:101020000503030601F6F6F7120E0E1CA36161C25A
:101030005F35356AF95757AED0B9B96991868617C9
:1010400058C1C199271D1D3AB99E9E2738E1E1D9A3
:1010500013F8F8EBB398982B33111122BB6969D2BE
:1010600070D9D9A9898E8E07A7949433B69B9B2DEE
:10107000221E1E3C9287871520E9E9C949CECE87FA
:10108000FF5555AA782828507ADFDFA58F8C8C036E
:10109000F8A1A15980898909170D0D1ADABFBF651A
:1010A00031E6E6D7C6424284B86868D0C34141827F
:1010B000B0999929772D2D5A110F0F1ECBB0B07B07
:1010C000FC5454A8D6BBBB6D3A16162CF810080079
:1010D000001108000811080010110800181108007C
:1010E00020110800281108003011080038110D00E7
:1010F00045110D0052110D002B06010201010100E6
:101100002B060102010103002B060102010104006C
:101110002B060102010105002B0601020101060058
:101120002B060102010B01002B060102010B03003B
:101130002B060102010B06002B0601040181AC5DA8
:1011400064845801002B0601040181AC5D6484585D
:1011500002002B0601040181AC5D64845804005335
:10116000797374656D206F6E6C696E652E0A000A66
:101170002A2A2A2A2A2A2A2A424F4F54494E4720ED
:10118000434F4E54494B492A2A2A2A2A2A2A2A2AD4
:101190000A00526F7574696E6720456E61626C65F6
:1011A000640A000A002C20636865636B2072617416
:1011B0006520257520487A0025732025732C20632F
:1011C00068616E6E656C202575004D414320616439
:1011D00064726573732025783A25783A25783A2524
:1011E000783A25783A25783A25783A25780A0053CE
:1011F000656E64696E67207061636B6574207769E2
:101200007468206C656E67746820256420282564E6
:10121000290A000A0066726F6D0053656E64696E7C
:101220006720544350207061636B657420746F00B5
:10123000496E207463705F73656E640A00496E20A6
:10124000666F756E640A00496E20666F756E642065
:101250006C697374656E0A00496E207265736574FB
:101260000A007463703A207A65726F20706F72742E
:101270002E007463703A2062616420636865636B5A
:1012800073756D20307825303478203078253034EF
:10129000780A00526563656976696E672054435029
:1012A000207061636B65740A00496E207564705F1D
:1012B00073656E640A00496E207564705F666F75B1
:1012C0006E640A007564703A206E6F206D617463FD
:1012D00068696E6720636F6E6E656374696F6E20F8
:1012E000666F756E640A007564703A207A65726F75
:1012F00020706F72742E0A007564703A2062616407
:1013000020636865636B73756D20307825303478A1
:10131000203078253034780A005265636569766933
:101320006E6720554450207061636B65740A0055E8
:101330006E6B6E6F776E2069636D7036206D6573AE
:101340007361676520747970652025640A005265B1
:1013500063656976656420616E2069636D7036200F
:101360006563686F207265706C790A0069636D70DF
:1013700076363A2062616420636865636B73756DCD
:101380002E0069636D70365F696E7075743A206CFB
:10139000656E67746820256420747970653A20252D
:1013A00064200A0050726F63657373696E67205220
:1013B0006F7574696E67206865616465720A0050B4
:1013C000726F63657373696E6720646573746F20F1
:1013D0006865616465720A0050726F636573736952
:1013E0006E6720686268206865616465720A0044FF
:1013F000726F7070696E67207061636B65742C200A
:101400006E6F7420666F72206D6520616E64206C53
:10141000696E6B206C6F63616C206F72206D756CF0
:101420007469636173740A004C4C20736F75726346
:101430006520616464726573732077697468206FD6
:101440006666206C696E6B2064657374696E617486
:10145000696F6E2C2064726F7070696E670A000A83
:1014600000466F7277617264696E67207061636BAA
:10147000657420746F200044726F7070696E67200D
:101480007061636B65742C20737263206973206DC7
:10149000636173740A000A0020746F20004950765B
:1014A00036207061636B657420726563656976656B
:1014B000642066726F6D20004D53422025780A002B
:1014C00052504C204F7074696F6E204572726F726B
:1014D000203A2044726F7070696E67205061636BB0
:1014E00065740050726F63657373696E6720525044
:1014F0004C206F7074696F6E0A0050726F63657371
:1015000073696E67205041444E206F7074696F6E2E
:101510000A0050726F63657373696E6720504144AF
:1015200031206F7074696F6E0A0043757474696E50
:1015300067206578742D68656164657220626566F0
:101540006F72652070726F63657373696E672028B0
:101550006578746C656E3A2025642C207569706C12
:10156000656E3A202564290A005570706572206CFA
:101570006179657220636865636B73756D206C6556
:101580006E3A2025642066726F6D3A2025640A0049
:101590007569705F697063686B73756D3A207375F8
:1015A0006D203078253034780A0074637069705F7C
:1015B000697076365F6F75747075743A206E6272FA
:1015C00020636163686520656E747279207374614D
:1015D0006C65206D6F76696E6720746F2064656C32
:1015E00061790A0074637069705F697076365F6F45
:1015F00075747075743A206E6272206361636865F9
:1016000020656E74727920696E636F6D706C65749D
:10161000650A0074637069705F697076365F6F7514
:10162000747075743A2044657374696E6174696F7F
:101630006E206F66662D6C696E6B20627574206E0D
:101640006F20726F7574650A000A0066726F6D0014
:1016500053656E64696E6720524120746F00525367
:1016600020726563656976656420697320626164D0
:101670000A004E44206F7074696F6E206E6F742084
:10168000737570706F7274656420696E2052530AAE
:101690000052532072656365697665642069732022
:1016A0006261640A005253207265636569766564FD
:1016B000206973206261640A000A00746F00526539
:1016C0006365697665642052532066726F6D004EC3
:1016D0004120726563656976656420697320626183
:1016E000640A004E44206F7074696F6E206E6F74D0
:1016F00020737570706F7274656420696E204E413E
:101700000A004E41207265636569766564206973DD
:10171000206261640A004E412072656365697665E6
:1017200064206973206261640A000A007769746842
:1017300020746172676574206164647265737300FC
:10174000746F005265636569766564204E4120665A
:10175000726F6D000A007769746820746172676542
:101760007420616464726573730066726F6D0053F8
:10177000656E64696E67204E5320746F0044726F0B
:101780007070696E67204E532064756520746F20F9
:101790006E6F207375697461626C6520736F75720A
:1017A000636520616464726573730A000A002077C0
:1017B000697468207461726765742061646472651D
:1017C000737320002066726F6D200053656E64692C
:1017D0006E67204E4120746F20004E532072656367
:1017E0006569766564206973206261640A004E53FE
:1017F000207265636569766564206973206261643F
:101800000A004E44206F7074696F6E206E6F7420F2
:10181000737570706F7274656420696E204E53002A
:101820004E53207265636569766564206973206232
:1018300061640A004E5320726563656976656420B1
:101840006973206261640A004E53207265636569A2
:10185000766564206973206261640A000A0020775B
:10186000697468207461726765742061646472656C
:1018700073730020746F2000526563656976656438
:10188000204E532066726F6D200052616E646F6D42
:101890002074696D652033203D2025750A00526152
:1018A0006E646F6D2074696D652032203D20257552
:1018B0000A0052616E646F6D2074696D652031207D
:1018C0003D2025750A0053656E64696E672070655A
:1018D00072696F6469632052410A00536F6C6963D7
:1018E000697465642052412C2072616E646F6D20B2
:1018F00074696D652025750A00234C2025752030FC
:101900000A00234C20257520300A00234C20257521
:1019100020313B626C75650A000A002076696120FF
:10192000004453363A20616464696E6720726F75B3
:1019300074653A20004453363A204E6F20726F751A
:10194000746520666F756E640A000A00207669610E
:1019500020004453363A20466F756E6420726F75CE
:1019600074653A000A004453363A204C6F6F6B6935
:101970006E6720757020726F75746520666F7220B7
:10198000004E6F206D6F7265207370616365206912
:101990006E20507265666978206C6973740A006CF9
:1019A000656E6774682025752C20666C61677320EE
:1019B00025782C2056616C6964206C6966657469B1
:1019C0006D6520256C782C205072656666657265A1
:1019D00064206C69666574696D6520256C780A0001
:1019E000416464696E672070726566697820000AD8
:1019F00000446566727420494E434F4D504C455427
:101A00004520666F756E642C2049502061646472B5
:101A100065737320000A00446566727420666F75F2
:101A20006E642C20495020616464726573732000D9
:101A30000A0044656672742C204950206164647207
:101A40006573732000234C20257520300A00234C39
:101A500020257520310A000A00416464696E672000
:101A6000646566726F757465722077697468206941
:101A700070206164647220007569705F6473365F02
:101A80006E62725F6164642064726F700A007374C6
:101A90006174652025750A006C696E6B2061646451
:101AA000722000416464696E67206E6569676862D0
:101AB0006F72207769746820697020616464722095
:101AC0000050524F42453A204E532025750A00508F
:101AD000524F424520454E440A0044454C41593A34
:101AE000206D6F76696E6720746F2050524F4245AB
:101AF0000A00290A00524541434841424C453A20D8
:101B00006D6F76696E6720746F205354414C452089
:101B100028004E42525F494E434F4D504C4554456C
:101B20003A204E532025750A002575206E65696799
:101B300068626F72730A25752064656661756C74DE
:101B400020726F75746572730A25752070726566F0
:101B5000697865730A257520726F757465730A2537
:101B60007520756E69636173742061646472657356
:101B70007365730A2575206D756C74696361737480
:101B8000206164647265737365730A257520616EE4
:101B90007963617374206164647265737365730A39
:101BA00000496E6974206F66204950763620646162
:101BB000746120737472756374757265730A005270
:101BC000504C20737461727465640A000A005250AC
:101BD0004C3A2044656C6574696E6720726F757449
:101BE000657320696E7374616C6C65642062792022
:101BF00044414F732072656365697665642066723F
:101C00006F6D200020696E20696E7374616E63656C
:101C10002025752062656361757365206F6620629B
:101C2000616420636F6E6E65637469766974792090
:101C300028455458202564290A0052504C3A205215
:101C4000656D6F76696E6720706172656E742000D5
:101C50002069732025736B6E6F776E2E2045545864
:101C6000203D2025750A0052504C3A204E65696788
:101C700068626F7220000A0052504C3A2052656D23
:101C80006F76696E67206E65696768626F722000A3
:101C90000A002F256420766961200052504C3A20BA
:101CA0004164646564206120726F75746520746F8F
:101CB00020000A0020746F200052504C3A205570CA
:101CC000646174656420746865206E65787420684A
:101CD0006F7020666F72207072656669782000529E
:101CE000504C3A204E6F20737061636520666F72AE
:101CF000206D6F726520726F75746520656E7472E9
:101D00006965730A00234C20257520300A00525063
:101D10004C3A205468652063616E6469646174653F
:101D200020706172656E742069732072656A6563E4
:101D30007465640A00706172656E742072616E6B06
:101D40002025752C20706172656E74206574782072
:101D500025752C206C696E6B206D6574726963202B
:101D600025752C20696E7374616E636520657478C7
:101D70002025750A002C2072616E6B2025752C20A1
:101D80006D696E5F72616E6B2025752C200052505C
:101D90004C3A2070726566657272656420444147F2
:101DA000200052504C3A2052656365697665642084
:101DB000636F6E73697374656E742044494F0A00D3
:101DC0000A0052504C3A204E65772063616E646978
:101DD0006461746520706172656E742077697468DF
:101DE0002072616E6B2025753A2000290A0052503E
:101DF0004C3A204661696C656420746F20616464AC
:101E00002061206E657720706172656E74202800F5
:101E100052504C3A2049676E6F72696E6720444990
:101E20004F207769746820746F6F206C6F77207211
:101E3000616E6B3A2025750A0052504C3A206F6C47
:101E4000642076657273696F6E207265636569766A
:101E50006564203D3E20696E636F6E7369737465BF
:101E60006E63792064657465637465640A0052501A
:101E70004C3A20526F6F74207265636569766564B1
:101E800020696E636F6E73697374656E7420444964
:101E90004F2076657273696F6E206E756D62657224
:101EA0000A0052504C3A20416464696E67206E65A6
:101EB000772044414720746F206B6E6F776E2069E6
:101EC0006E7374616E63652E0A0052504C3A204E58
:101ED000657720696E7374616E63652064657465EF
:101EE000637465643A204A6F696E696E672E2E2EA0
:101EF0000A000A0052504C3A2049676E6F72696EB0
:101F0000672044494F2066726F6D206E6F646520B4
:101F10007769746820696E66696E6974652072619C
:101F20006E6B3A200052504C3A2049676E6F7269CE
:101F30006E6720612044494F207769746820616E84
:101F400020756E737570706F72746564204D4F509C
:101F50003A2025640A0052504C3A2050617274694C
:101F60006369706174696E6720696E206120676CB7
:101F70006F62616C2072657061697220287665728B
:101F800073696F6E3D25752C2072616E6B3D2568FF
:101F900075290A0052504C3A204661696C656420EC
:101FA000746F20616464206120706172656E7420BA
:101FB000647572696E672074686520676C6F626112
:101FC0006C207265706169720A0052504C3A20525E
:101FD000656D6F76696E6720706172656E747320CF
:101FE000286D696E696D756D2072616E6B20257547
:101FF000290A0052504C3A2052656D6F76696E671F
:102000002074686520776F72737420706172656EDA
:10201000740A0052504C3A20576520646F6E277442
:10202000206861766520616E7920706172656E74DA
:1020300000202872616E6B202575290A0052504CD1
:102040003A20546865207072656665727265642016
:10205000706172656E74206973200052504C3A2092
:102060004D6F76696E6720696E2074686520696EB1
:102070007374616E63652066726F6D2072616E6B42
:102080002025687520746F202568750A0052504C11
:102090003A204E6F20706172656E747320666F75A2
:1020A0006E6420696E20616E79204441470A0052B7
:1020B000504C3A20556E61636365707461626C6563
:1020C0002072616E6B2025750A0052504C3A2041F7
:1020D00020706172656E74207761732064726F7016
:1020E0007065640A0052504C3A20537461727469EE
:1020F0006E672061206C6F63616C20696E73746120
:102100006E6365207265706169720A0052504C3AC4
:102110002052656D6F76696E6720706172656E74AE
:102120007320286D696E696D756D2072616E6B200C
:102130002575290A002341206A6F696E3D25750ABD
:10214000000A0052504C3A204A6F696E6564204480
:102150004147207769746820696E7374616E6365A6
:102160002049442025752C2072616E6B20256875EE
:102170002C20444147204944200052504C3A2044EE
:10218000494F20666F722044414720696E73746125
:102190006E636520257520756E636F6D706174695F
:1021A000626C6520776974682070726576696F73F8
:1021B0002044494F0A007375636365656465640A6A
:1021C000006661696C65640A00206173206120709B
:1021D0006172656E743A200052504C3A204164643A
:1021E000696E67200052504C3A204661696C656404
:1021F00020746F20616C6C6F636174652061204492
:102200004147206F626A656374210A0052504C3A5C
:10221000205468652044494F20646F6573206E6FB9
:1022200074206D65657420746865207072657265D0
:10223000717569736974657320666F722073656E5A
:1022400064696E6720612044414F0A002341206A7F
:102250006F696E3D25750A000A0052504C3A204ABB
:102260006F696E656420444147207769746820690E
:102270006E7374616E63652049442025752C20724D
:10228000616E6B202568752C20444147204944200D
:102290000052504C3A2044494F20666F722044410E
:1022A0004720696E7374616E636520257520646FC5
:1022B0006573206E6F742073706563696679206141
:1022C00020737570706F72746564204F460A0073D6
:1022D00075636365656465640A006661696C65645D
:1022E0000A00206173206120706172656E743A206B
:1022F0000052504C3A20416464696E67200052508D
:102300004C3A204661696C656420746F20616C6C86
:102310006F63617465206120444147206F626A6584
:102320006374210A000A0052504C3A2061646469C7
:102330006E6720676C6F62616C2049502061646435
:102340007265737320000A0052504C3A2072656D1A
:102350006F76696E6720676C6F62616C20495020F0
:102360006164647265737320000A0052504C3A2015
:102370004D6F76696E6720706172656E7420000A19
:102380000052504C3A2052656D6F76696E6720643A
:10239000656661756C7420726F75746520000A0043
:1023A00052504C3A204E756C6C696679696E6720A4
:1023B000706172656E7420000A0052504C3A2052CF
:1023C000656D6F76696E672064656661756C7420F3
:1023D000726F75746520000A0052504C3A205265A5
:1023E0006D6F76696E6720706172656E7420005241
:1023F000504C3A2050726566657272656420706157
:1024000072656E74207570646174652C2072616EE3
:102410006B206368616E6765642066726F6D20254E
:102420007520746F2025750A0052504C3A2043687D
:10243000616E67656420707265666572726564209E
:10244000706172656E742C2072616E6B20636861BE
:102450006E6765642066726F6D20257520746F202D
:1024600025750A0052504C3A204E65772072616EF5
:102470006B20756E61636365707461626C65210ABF
:10248000000A0052504C3A204E6577207072656603
:102490006572726564204441473A20000A00525038
:1024A0004C3A204C656176696E67207468652044FB
:1024B0004147200052504C3A204C656176696E6766
:1024C0002074686520696E7374616E63652025757C
:1024D0000A000A0052504C3A20416464696E672039
:1024E00064656661756C7420726F757465207468BC
:1024F000726F75676820000A0052504C3A2052658E
:102500006D6F76696E672064656661756C742072A4
:102510006F757465207468726F756768200052501B
:102520004C3A2050726566697820736574202D20BE
:1025300077696C6C20616E6E6F756E636520746870
:10254000697320696E2044494F730A002341207249
:102550006F6F743D25750A000A0052504C3A204EA8
:102560006F64652073657420746F2062652061203C
:1025700044414720726F6F7420776974682044412A
:1025800047204944200052504C3A204661696C650E
:102590006420746F20616C6C6F63617465206120CE
:1025A0004441470A0052504C3A2044726F7070699F
:1025B0006E672061206A6F696E6564204441472020
:1025C0007768656E2073657474696E6720746869D6
:1025D00073206E6F646520617320726F6F74005298
:1025E000504C3A20726563656976656420616E209F
:1025F000756E6B6E6F776E2049434D503620636F5A
:10260000646520282575290A005265636569766529
:102610006420616E2052504C20636F6E74726F6C38
:10262000206D6573736167650A0052504C3A2055FE
:102630006E737570706F72746564207375626F70FD
:1026400074696F6E207479706520696E2044494FFB
:102650003A2025750A0052504C3A20436F70796930
:102660006E672070726566697820696E666F726D3C
:102670006174696F6E0A0052504C3A204441472001
:1026800070726566697820696E666F206E6F74205F
:102690006F6B2C206C656E20213D2033320A005276
:1026A000504C3A2044414720636F6E663A64626C36
:1026B0003D25642C206D696E3D2564207265643D66
:1026C0002564206D6178696E633D2564206D696EB7
:1026D000696E633D2564206F63703D256420645FEF
:1026E0006C3D2575206C5F753D25750A0052504C78
:1026F0003A20496E76616C69642044414720636FDB
:102700006E66696775726174696F6E206F70746947
:102710006F6E2C206C656E203D2025640A0052509F
:102720004C3A20496E76616C696420726F757465ED
:1027300020696E666F206F7074696F6E2C206C65F7
:102740006E203D2025640A0052504C3A20436F70A1
:1027500079696E672064657374696E6174696F6E00
:10276000207072656669780A0052504C3A20496EB2
:1027700076616C69642064657374696E6174696FF5
:102780006E20707265666978206F7074696F6E2C48
:10279000206C656E203D2025640A0052504C3A2082
:1027A000556E68616E646C656420444147204D43FA
:1027B00020747970653A2025750A0052504C3A20F1
:1027C000444147204D433A20747970652025752C8B
:1027D00020666C6167732025752C20616767722005
:1027E00025752C20707265632025752C206C656E14
:1027F0006774682025752C204554582025750A00DB
:1028000052504C3A20496E76616C696420444147CD
:10281000204D432C206C656E203D2025640A00521B
:10282000504C3A2044494F206F7074696F6E2025D8
:10283000752C206C656E6774683A2025750A005205
:10284000504C3A20496E76616C69642044494F20AF
:102850007061636B65740A002C202575290A00528B
:10286000504C3A20496E636F6D696E672044494F42
:1028700020286461675F69642C2070726566292076
:102880003D20280052504C3A20496E636F6D696EAE
:10289000672044494F202869642C207665722C20DB
:1028A00072616E6B29203D202825752C25752C25FD
:1028B00075290A0052504C3A204E65696768626F6C
:1028C0007220616C726561647920696E206E656941
:1028D0006768626F722063616368650A000A002C92
:1028E000200052504C3A204E65696768626F722032
:1028F000616464656420746F206E65696768626FE7
:102900007220636163686520000A0052504C3A20CF
:10291000526563656976656420612044494F20668D
:10292000726F6D200052504C3A20556E696361738E
:1029300074204449532C207265706C7920746F2088
:1029400073656E6465720A0052504C3A204D756C86
:1029500074696361737420444953203D3E2072655D
:102960007365742044494F2074696D65720A000ACA
:102970000052504C3A205265636569766564206167
:10298000204449532066726F6D20000A0052504C5B
:102990003A20466F7277617264696E672044414FD6
:1029A00020746F20706172656E74200052504C3A32
:1029B00020436F756C64206E6F74206164642061C5
:1029C00020726F757465206166746572207265632C
:1029D000656976696E6720612044414F0A00525054
:1029E0004C3A204C6F6F7020646574656374656445
:1029F000207768656E20726563656976696E672009
:102A00006120756E69636173742044414F20667262
:102A10006F6D2061206E6F64652077697468206136
:102A2000206C6F7765722072616E6B21202825758E
:102A3000203C202575290A000A0052504C3A2053A8
:102A4000657474696E672065787069726174696F06
:102A50006E2074696D657220666F72207072656693
:102A6000697820000A0052504C3A2044414F206CB3
:102A700069666574696D653A2025752C20707265EC
:102A8000666978206C656E6774683A2025752070D9
:102A900072656669783A200052504C3A2049676E58
:102AA0006F72696E6720612044414F20666F72200B
:102AB000612044414720646966666572656E7420D2
:102AC00066726F6D206F7572730A0052504C3A2017
:102AD00049676E6F72696E6720612044414F2066BE
:102AE0006F7220616E20756E6B6E6F776E20525024
:102AF0004C20696E7374616E6365282575290A0020
:102B00000A0052504C3A205265636569766564202C
:102B1000612044414F2066726F6D20000A005250C0
:102B20004C3A2052656365697665642061204441B2
:102B30004F2041434B207769746820736571756538
:102B40006E6365206E756D62657220256420616E0E
:102B500064207374617475732025642066726F6DD0
:102B600020000A0052504C3A2053656E64696E672B
:102B700020612044414F2041434B207769746820F5
:102B800073657175656E6365206E756D6265722023
:102B9000256420746F20000A0020746F20005250BA
:102BA0004C3A2053656E64696E672044414F20772C
:102BB00069746820707265666978200052504C3ADA
:102BC000204E6F20676C6F62616C20616464726577
:102BD00073732073657420666F7220746869732044
:102BE0006E6F6465202D20737570707265737369E4
:102BF0006E672044414F0A000A0052504C3A20535D
:102C0000656E64696E6720756E69636173742D44C7
:102C1000494F20776974682072616E6B202575209A
:102C2000746F200052504C3A2053656E64696E6791
:102C30002061206D756C7469636173742D44494F14
:102C400020776974682072616E6B2025750A0052C6
:102C5000504C3A204E6F2070726566697820746F10
:102C600020616E6E6F756E636520286C656E202521
:102C700064290A000A0052504C3A2053656E646978
:102C80006E672070726566697820696E666F20696C
:102C90006E2044494F20666F72200052504C3A20FB
:102CA000556E61626C6520746F2073656E6420449C
:102CB000494F2062656361757365206F6620756E8C
:102CC00068616E646C656420444147204D43207404
:102CD0007970652025750A000A0052504C3A20533D
:102CE000656E64696E6720612044495320746F20CB
:102CF0000052504C3A205363686564756C696E6786
:102D00002044414F2074696D6572202575207469D7
:102D1000636B7320696E20746865206675747572C4
:102D2000650A0052504C3A2044414F2074696D6549
:102D30007220616C72656164792073636865647583
:102D40006C65640A0052504C3A204E6F20737569CE
:102D50007461626C652044414F20706172656E74CD
:102D60000A0052504C3A2068616E646C655F646181
:102D70006F5F74696D6572202D2073656E64696E76
:102D8000672044414F0A0052504C3A20506F7374F0
:102D9000706F6E652044414F207472616E736D696F
:102DA0007373696F6E0A0052504C3A205363686522
:102DB00064756C696E672044494F2074696D657253
:102DC00020256C75207469636B7320696E206675AD
:102DD000747572652028496E74657276616C290A73
:102DE0000052504C3A2044494F2054696D6572207E
:102DF000696E74657276616C20646F75626C65646F
:102E00002025640A0052504C3A205363686564756B
:102E10006C696E672044494F2074696D6572202586
:102E20006C75207469636B7320696E2066757475A8
:102E30007265202873656E74290A0052504C3A203E
:102E400053757072657373696E672044494F2074BF
:102E500072616E736D697373696F6E2028256420CB
:102E60003E3D202564290A0052504C3A20506F7391
:102E700074706F6E696E672044494F207472616E82
:102E8000736D697373696F6E2073696E6365206C0F
:102E9000696E6B206C6F63616C2061646472657332
:102EA00073206973206E6F74206F6B0A0052504C50
:102EB0003A2044494F2054696D65722074726967E5
:102EC00067657265640A0052504C3A204D79207053
:102ED0006174682045545820746F207468652072AE
:102EE0006F6F742069732025752E25750A00525066
:102EF0004C3A204D52484F4620687973746572658C
:102F00007369733A202575203C3D202575203C3D92
:102F10002025750A0052504C3A204D756C7469207A
:102F2000486F702D62792D686F70206F7074696FB3
:102F30006E73206E6F7420696D706C656D656E7454
:102F400065640A0052504C3A205570646174696E91
:102F5000672052504C206F7074696F6E2028737711
:102F600069746368696E6720646972656374696F08
:102F70006E290A0052504C3A204E6F20686F702D17
:102F800062792D686F70204F7074696F6E20666F64
:102F9000756E640A0052504C3A2056657269667923
:102FA000696E67207468652070726573656E63650D
:102FB000206F66207468652052504C2068656164FB
:102FC0006572206F7074696F6E0A0052504C3A201F
:102FD0004E6F20686F702D62792D686F70204F7072
:102FE00074696F6E20666F756E640A0052504C3AB9
:102FF0002052656D6F76696E672074686520525047
:103000004C20686561646572206F7074696F6E0A28
:103010000052504C3A20566572696679696E672095
:103020007468652070726573656E6365206F6620D5
:103030007468652052504C20686561646572206F29
:103040007074696F6E0A0052504C3A20556E61627E
:103050006C6520746F2061646420686F702D6279E4
:103060002D686F7020657874656E73696F6E206867
:1030700065616465723A20696E636F72726563742C
:103080002064656661756C7420696E7374616E632B
:10309000650A0052504C3A205570646174696E673D
:1030A0002052504C206F7074696F6E0A0052504C61
:1030B0003A204E6F6E2052504C20486F702D62792E
:1030C0002D686F70206F7074696F6E7320737570E8
:1030D000706F7274206E6F7420696D706C656D65B1
:1030E0006E7465640A0052504C3A204D756C7469D8
:1030F00020486F702D62792D686F70206F70746931
:103100006F6E73206E6F7420696D706C656D656E87
:103110007465640A0052504C3A20557064617469B9
:103120006E672052504C206F7074696F6E0A0052A7
:10313000504C3A205061636B657420746F6F206C43
:103140006F6E673A20696D706F737369626C65208A
:10315000746F2061646420686F702D62792D686FD0
:1031600070206F7074696F6E0A0052504C3A204E96
:103170006F20686F702D62792D686F70206F70748A
:10318000696F6E20666F756E642C20637265617462
:10319000696E672069740A0052504C3A20556E617E
:1031A000626C6520746F2061646420686F702D62AA
:1031B000792D686F7020657874656E73696F6E2005
:1031C0006865616465723A20696E636F72726563E7
:1031D0007420696E7374616E63650A0052504C3AD4
:1031E000204E6F6E2052504C20486F702D62792D0A
:1031F000686F70206F7074696F6E73207375707074
:103200006F7274206E6F7420696D706C656D656E81
:103210007465640A0052504C3A20566572696679AA
:10322000696E67207468652070726573656E63658A
:10323000206F66207468652052504C206865616478
:103240006572206F7074696F6E0A0052504C3A209C
:1032500052616E6B204F4B0A0052504C3A2053691A
:103260006E676C65206572726F7220746F6C657228
:10327000617465640A0052504C3A2052616E6B20B2
:103280006572726F72207369676E616C6C65642021
:10329000696E2052504C206F7074696F6E210A0065
:1032A00052504C3A204C6F6F7020646574656374A3
:1032B0006564202D2073656E64657272616E6B3A71
:1032C000202564206D792D72616E6B3A2025642073
:1032D00073656E6465725F636C6F7365723A202507
:1032E000640A0052504C3A205061636B6574206749
:1032F0006F696E672025730A0052504C3A204E6F5A
:103300002044414720696E2074686520696E73749B
:10331000616E63650A0052504C3A20556E6B6E6FB9
:10332000776E20696E7374616E63653A2025750A45
:103330000052504C3A20466F727761726420657279
:10334000726F72210A0052504C3A20426164206828
:103350006561646572206F7074696F6E21202877D3
:10336000726F6E67206C656E677468290A0025307D
:103370003278003A002578003A003A3A00001124E9
:103380001FBECFEFD1E2DEBFCDBF17E0A0E0B2E0BD
:10339000EEEFF5E801E00BBF02C007900D92AA38EE
:1033A000B107D9F718E1AAE8B7E001C01D92AD371F
:1033B000B107E1F70E941C4D0C94FDC20C94000073
:1033C000EF92FF920F931F93DF93CF93CDB7DEB7AA
:1033D000C65ED1400FB6F894DEBF0FBECDBF909150
:1033E0004A12891709F052C08091AD1181FF4EC079
:1033F00040918A0750918B07CA01A5ECB0E120E10A
:103400000D90FC010192CF012150D1F78091E51080
:103410009091E610DA0153969C938E9352978AE02E
:1034200092E00E94C7BF6091AD107091AE1083E032
:10343000E82EF12CEC0EFD1E8091B2119091B3118B
:10344000A7019E012F5F3F4F04EE11E00E94D61BA3
:10345000E0918A07F0918B07882339F0138A128A4A
:1034600080E111928A95E9F711C049815A81CF0113
:10347000B7010E94F06FE0918A07F0918B0780E11D
:10348000DF011D928A95E9F7138A128ACA51DE4F2D
:103490000FB6F894DEBF0FBECDBFCF91DF911F9165
:1034A0000F91FF90EF90089580E090E00E941EC27F
:1034B000AB01BC014F3F8FEF58078FEF68078FE7D5
:1034C000780748F44F5F5F4F6F4F7F4F80E090E089
:1034D0000E9424C204C083E492E00E94C7BF80E03F
:1034E00090E00E941EC200D000D000D028EB32E055
:1034F000EDB7FEB73283218363837483858396831C
:103500000E9495BF8DB79EB706960FB6F8949EBFE2
:103510000FBE8DBF80E0089560917A0F70917B0F90
:1035200080917C0F90917D0F24E630E040E050E0E8
:103530000E94F8BC97FF0AC010927A0F10927B0F7E
:1035400010927C0F10927D0F0E94541A60917A0F96
:1035500070917B0F80917C0F90917D0F24E630E07D
:1035600040E050E00E94F8BC089580E090E00E94A6
:103570001EC2089500D000D000D0EDB7FEB731963E
:103580008BED92E0ADB7BEB712969C938E931197D8
:103590008FEF91E2938382838DE798E19583848313
:1035A0000E9495BF8DB79EB706960FB6F8949EBF42
:1035B0000FBE8DBFE0E0F2E220E030E0A90108C0DC
:1035C000B291A29192918291282739274A275B27AD
:1035D00098E1E138F907A0F7B901CA010895CF933E
:1035E000DF93EC01862F288139812115310531F0D7
:1035F00091E02633390709F06DC068C0259A269AF4
:10360000279A2F982E9A2D9A80E090E060E070E043
:1036100040E050E00E94DC6C90938B0780938A0717
:1036200020E031EADC0151963C932E9350970E94A2
:10363000541A0E94BA1A0E9447BF0E9442BF609368
:10364000560F7093570F8093580F9093590F0E9405
:1036500042BF60935A0F70935B0F80935C0F9093FF
:103660005D0FEDB7FEB73A970FB6F894FEBF0FBEE9
:10367000EDBF319627EF32E0ADB7BEB712963C935F
:103680002E9311972091560F3091570F4091580F5C
:103690005091590F22833383448355836683778304
:1036A000808791870E9495BFEDB7FEB73A960FB617
:1036B000F894FEBF0FBEEDBF0E94724B8F3F51F0DA
:1036C00086E391E09983888381E007C0BA010E9474
:1036D000E019F6CF1982188283E0DF91CF91089527
:1036E0002091560F3091570F4091580F5091590F1C
:1036F0002F5F3F4F4F4F5F4F2093560F3093570F21
:103700004093580F5093590FB901CA010895209161
:103710005A0F30915B0F40915C0F50915D0F2F5FFE
:103720003F4F4F4F5F4F20935A0F30935B0F4093A3
:103730005C0F50935D0FB901CA010895609198071D
:103740007091990780919A0790919B0708956091D5
:103750008C0770918D0780918E0790918F07089547
:1037600060919007709191078091920790919307D3
:1037700008956091940770919507809196079091B4
:10378000970708958091940790919507A0919607C7
:10379000B09197070196A11DB11D80939407909356
:1037A0009507A0939607B093970708952F923F929D
:1037B0004F925F926F927F928F929F92AF92BF9241
:1037C000CF92DF92EF92FF920F931F93DF93CF93ED
:1037D00000D000D000D0CDB7DEB75C017B012A015C
:1037E000190138018091980790919907A0919A0743
:1037F000B0919B070196A11DB11D809398079093EE
:103800009907A0939A07B0939B0700D000D000D0EF
:1038100022E433E0EDB7FEB73283218383839483C0
:10382000A583B6830E9495BF8DB79EB706960FB647
:10383000F8949EBF0FBE8DBF95EEE91691E0F90694
:1038400008F0CDC01A821982C501B7014E01089453
:10385000811C911CA4010E949E27882351F4C5015C
:10386000B701A4019E012D5F3F4F0E94ED278823E1
:10387000C1F083E593E00E94C7BF809190079091CB
:103880009107A0919207B09193070196A11DB11DD8
:103890008093900790939107A0939207B09393071A
:1038A0009EC08B819C81AD81BE8183309105A10535
:1038B000B10551F582E390E00E9460BD192FC82E3A
:1038C000D92EE82FF92F82E3DF011D928A95E9F7BF
:1038D00083E0F60180838EE893E00E94C7BFC501B4
:1038E000B701A4012C2D312F0E94F21D992787FDCD
:1038F0009095A92FB92F8B839C83AD83BE830097AE
:10390000A105B10569F543C080918C0790918D07A1
:10391000A0918E07B0918F070196A11DB11D8093D4
:103920008C0790938D07A0938E07B0938F0700D0DC
:1039300000D0EDB7FEB7319687EB93E0ADB7BEB7D9
:1039400012969C938E93119780910000828313822C
:103950000E9495BF0F900F900F900F9081E042C092
:103960008091900790919107A0919207B091930751
:103970000196A11DB11D8093900790939107A0938C
:103980009207B0939307C6010E94952F28C0C601E5
:103990000E944523F60180818330B1F481EE93E0EB
:1039A0000E94C7BF8C2D912FB201A1019501870103
:1039B00073010E94BC1E992787FD9095A92FB92FEE
:1039C0008B839C83AD83BE83C6010E94952F8B8120
:1039D0009C81AD81BE810097A105B10511F08FEFEB
:1039E00001C080E026960FB6F894DEBF0FBECDBFB3
:1039F000CF91DF911F910F91FF90EF90DF90CF90CB
:103A0000BF90AF909F908F907F906F905F904F90FE
:103A10003F902F9008954F925F926F927F928F9276
:103A20009F92AF92BF92CF92DF92EF92FF920F934D
:103A30001F93DF93CF9300D0CDB7DEB75C016B014E
:103A40002A01A90198013701FA82E9828C010F5FEE
:103A50001F4FCB014E010894811C911CB4010E94A0
:103A6000102EF50146895789208D318DC601B4018C
:103A70000E942D2D87FDA0C0F5014289538924891C
:103A80003589C601B4010E942D2D87FD95C089811D
:103A90009A819301281B390BC601B40140E30E94AF
:103AA0004C2B87FD89C0C501B601A30194010E947A
:103AB0000E2287FD81C0E980FA80C601B40142E090
:103AC00003E010E020E030E00E94082C87FD74C085
:103AD00089819A8101979A83898397FD6DC08C0DA6
:103AE0009D1DF5012189FC012083C601B40144E03C
:103AF00021E030E00E944C2B87FD5EC0C601B4017E
:103B000042E004EE11E020E030E00E94082C87FD46
:103B100053C0F5010585168527853089C601B40196
:103B200042E00E94082C87FD47C089819A81970155
:103B3000281B390BC601B40140E30E944C2B87FDC2
:103B40003BC0F501008110E020E030E0C6014E01ED
:103B50000894811C911CB40142E00E94082C87FD4E
:103B60002BC089819A819301281B390BC601B401AE
:103B700040E30E944C2B87FD1FC069817A81A3011D
:103B8000461B570BF20151834083F501818980FF69
:103B900005C06C0D7D1DC5010E94142369817A81C9
:103BA000161617065CF46C0D7D1DF20140815181E3
:103BB000C6010E947CBF02C08FEF01C080E00F9061
:103BC0000F90CF91DF911F910F91FF90EF90DF90B9
:103BD000CF90BF90AF909F908F907F906F905F90AD
:103BE0004F9008956F927F928F929F92AF92BF9263
:103BF000CF92DF92EF92FF920F931F93DF93CF93B9
:103C0000CDB7DEB727970FB6F894DEBF0FBECDBF96
:103C10006C015B017A0149018E010E5F1F4F980113
:103C20000E94D22787FD92C084E0682E712C6C0E12
:103C30007D1EC601B501A70193010E94ED2787FDF6
:103C400085C08C819D81AE81BF81F4018587968777
:103C5000A787B08BC601B501A70193010E94ED278C
:103C600087FD74C0C601B501A7019E012F5F3F4FBC
:103C70000E947D2787FD6AC08981843009F066C073
:103C80008A819B818130910509F060C0D701ED9157
:103C9000FC911197EC0DFD1D8081F401818B8D91BC
:103CA0009C911197019611969C938E93818980FD2A
:103CB00002C081FD4BC0C601B501A7019E012C5F6A
:103CC0003F4F0E94ED2787FD41C08C819D81AE81D1
:103CD000BF8183309105A105B105C1F5C601B501CC
:103CE000A70194010E9436208F3F81F1833061F15A
:103CF000C601B501A7019E012E5F3F4F0E94D2274A
:103D000087FD24C094012E5E3F4F84010C5E1F4F3F
:103D1000C601B501A7010E94E62887FD17C09401DE
:103D20002A5E3F4F8401085E1F4FC601B501A701FF
:103D30000E94E62887FD0AC094012F5F3F4FC6010D
:103D4000B501A7010E94422A80E001C08FEF2796AB
:103D50000FB6F894DEBF0FBECDBFCF91DF911F919C
:103D60000F91FF90EF90DF90CF90BF90AF909F901A
:103D70008F907F906F9008952F923F924F925F9215
:103D80006F927F928F929F92AF92BF92CF92DF926B
:103D9000EF92FF920F931F93CF93DF93EC014B01B0
:103DA0003A01290189898370898B0E94A82FFC011F
:103DB00080819181A281B3818A8B9B8BAC8BBD8BDF
:103DC000CE01B401A30192010E940B1D882379F05A
:103DD00029843A841A86198681E08F831886CE0159
:103DE000B401A30192010E940B1D3A86298680E04E
:103DF000DF91CF911F910F91FF90EF90DF90CF90C7
:103E0000BF90AF909F908F907F906F905F904F90FA
:103E10003F902F9008954F925F926F927F928F9272
:103E20009F92AF92BF92CF92DF92EF92FF920F9349
:103E30001F93DF93CF93CDB7DEB7C859D0400FB6ED
:103E4000F894DEBF0FBECDBF3C012B015A018E019D
:103E50000F5F1F4F80E4F80111928A95E9F70E94E5
:103E6000B02FF801282F392FD90180E10D90019250
:103E70008150E1F78E010F5F1F4F91E4892E912C45
:103E80008C0E9D1EF80196E3808189278193E815A9
:103E9000F905D1F781E4E82EF12CEC0EFD1EC701E7
:103EA0000E944940C7016E010894C11CD11CB60193
:103EB00040E450E00E947340C701B301A2010E9498
:103EC0007340C701B5010E943B4180E4F6011192A5
:103ED0008A95E9F70E94B02FF601282F392FD901D2
:103EE00080E10D9001928150E1F79CE5F80180811D
:103EF000892781938F01E815F905C1F78E010F5BC2
:103F00001F4FC8010E944940C801BE016F5F7F4F2B
:103F100040E450E00E947340C801B50140E150E028
:103F20000E947340C801B5010E943B41C856DF4F53
:103F30000FB6F894DEBF0FBECDBFCF91DF911F91BA
:103F40000F91FF90EF90DF90CF90BF90AF909F9038
:103F50008F907F906F905F904F900895EF92FF92B7
:103F60000F931F93CF93DF93EC018B017A01FA013A
:103F700080819181A281B3810196A11DB11D8083B1
:103F80009183A283B383898982FF23C0CE010196E6
:103F90000E94552F198A88EA8A8380E090E00E9467
:103FA000312F9A8789870097A1F0FC011183008344
:103FB000E985FA8581E48283E985FA85E7018881CC
:103FC0009981AA81BB8183839483A583B68380E092
:103FD00001C08FEFDF91CF911F910F91FF90EF9074
:103FE00008958F929F92AF92BF92CF92DF92EF92FD
:103FF000FF920F931F93DF93CF93CDB7DEB7C55FCB
:10400000D0400FB6F894DEBF0FBECDBF6B014A01A2
:104010005901780119821A821B821C828E010B5F62
:104020001F4FB8010E949448C401B501A70198012F
:1040300086017E010894E11CF11CCC24C3940E94EB
:104040004A4380E0CB50DF4F0FB6F894DEBF0FBE7F
:10405000CDBFCF91DF911F910F91FF90EF90DF9037
:10406000CF90BF90AF909F908F9008954F925F92A6
:104070006F927F928F929F92AF92BF92CF92DF9278
:10408000EF92FF920F931F93DF93CF93CDB7DEB7DD
:10409000C650D1400FB6F894DEBF0FBECDBF4C0165
:1040A0006B015A017901A2E06A2E712C6C0E7D1E03
:1040B0009E012F5F3F4F83010E947D2787FD84C1B2
:1040C0008981843009F080C1C401B601A501930142
:1040D0000E94D22787FD78C19701265E3F4F870156
:1040E000045E1F4FC401B601A5010E94E62887FDAA
:1040F0006BC19701225E3F4FC401B601A5010E942A
:10410000ED2787FD61C197012E5D3F4FC401B601C8
:10411000A5010E94ED2787FD57C197012A5D3F4FFA
:104120008701085D1F4FC401B601A5010E94E62862
:1041300087FD4AC19701265D3F4F8701045D1F4FF0
:10414000C401B601A5010E94E62887FD3DC1970183
:10415000225D3F4F8701005D1F4FC401B601A501DD
:104160000E94E62887FD30C1D70151968C91519766
:1041700081FF45C1C401B601A5019E012F5F3F4FDC
:1041800083010E947D2787FD1FC18981843009F04A
:104190001BC1F501808191819601281B390BC90152
:1041A0002A813B812817390709F00EC128C1D701A0
:1041B0005A960D911C915B970E94A82FFC0160807C
:1041C00071800E94A82FDC0112964D915C9113978B
:1041D000C801B3010E9466BF009731F0C70169E6CC
:1041E00074E042E65FE0A4C0F70100A511A50E94BB
:1041F000AB2FDC010D900020E9F71197A81BB90B3C
:104200000A171B0781F4D70196960D911C91979779
:104210000E94AB2FBC01F70140A551A5C8010E9427
:1042200066BF009731F0C7016BE574E04EE65FE0D2
:104230007FC0D70151968C91519780FF66C0F701DE
:1042400084A595A58C30910549F532A523A5DE01FD
:104250001696A901852F942FFC018CE001900D92F8
:104260008150E1F7E32FF22F8CE0DF011D928A9558
:10427000E9F78E010A5E1F4FC401B601A8010E9432
:104280000B1FCE010696B8014CE050E00E9466BFBD
:10429000009721F08AE094E00E94C7BFF701468CA6
:1042A000578C60A071A00E94B51A46165706680682
:1042B000790609F5D70192960D911C9193970E946A
:1042C0008C1A24E630E040E050E00E943EBD021B24
:1042D000130B17FF03C0109501951F4F07391105E8
:1042E00054F40E94B51A6F3FBFEF7B07BFEF8B07F7
:1042F000BFE79B0730F0C7016DE474E04AE65FE07A
:1043000017C0F701818981FD06C0C70162E974E029
:1043100042E75FE00DC0D701D0968D919C91D19777
:104320008830910551F0C70165E874E04EE55FE023
:104330000E94AE1F87FF4AC047C0F701468D578DC8
:1043400060A171A1CE0106960E94A22FD70192967C
:104350004D915D916D917C919597CE010A960E9449
:10436000A22FDE011E96F70136A527A5832F922FD7
:10437000FC0188E001900D928150E1F70E94B32F7B
:10438000D5010D911C91800E911E1A821B821C82F8
:104390001D82F6E1EF2EF12CEC0EFD1EB7010E94FE
:1043A0009448A601401B510BC401B40197018E0132
:1043B0000A5F1F4FE2E0EE2EF12CEC0EFD1ECC2426
:1043C0000E944A4380E003C08FEF01C083E0CA5FD0
:1043D000DE4F0FB6F894DEBF0FBECDBFCF91DF9199
:1043E0001F910F91FF90EF90DF90CF90BF90AF9013
:1043F0009F908F907F906F905F904F900895F701FE
:10440000048D158D0E94A82FDC0112968D919C9130
:1044100013970817190709F4CACEE0CE8F929F921E
:10442000AF92BF92CF92DF92EF92FF920F931F93C2
:10443000DF93CF93CDB7DEB760970FB6F894DEBFAA
:104440000FBECDBF7C015B014A0169010E94A82F0C
:10445000FC0180819181A281B381F701828F938FCA
:10446000A48FB58F0E94B51AF701668F778F80A34E
:1044700091A30E948C1A24E630E040E050E00E94B4
:104480003EBDF70122A333A344A355A3818981FF35
:1044900050C0468D578D60A171A1CE0101960E943A
:1044A000A22FF70142A153A164A175A1CE010596E7
:1044B0000E94A22FF70106A517A50E94701BAB0151
:1044C000BC01C8010E94A22FF70106A517A50E94F2
:1044D000871BAB01BC01C8010E94A22FDE01199607
:1044E000F70136A527A5832F922FFC0188E00190C4
:1044F0000D928150E1F70E94B32FF6014081518166
:104500009501240F351F8401041B150BBE016F5F3D
:104510007F4FA9010E94F11FF601808191819401D2
:10452000281B390BC501B60144E00E944C2B87FDC6
:1045300067C0F60180809180F70146A557A520A9A4
:1045400031A9C501B6010E942D2D87FD59C0F70183
:1045500042A553A524A535A5C501B6010E942D2D60
:1045600087FD4EC0F6018081918102968A0D9B1DC8
:10457000F70193A782A746A157A120A531A5C501A0
:10458000B6010E942D2D87FD3BC0F70102A113A1AA
:1045900024A135A1C501B60142E00E94082C87FD87
:1045A0002FC0F701068D178D20A131A1C501B601DD
:1045B00042E00E94082C87FD23C0F701428D538DF5
:1045C000248D358DC501B6010E942D2D87FD18C0A3
:1045D000F601808191819401281B390BC501B60138
:1045E00040E30E944C2B87FD0BC0F6018081918136
:1045F0009401281B390BC501B60144E00E944C2BE5
:1046000080E060960FB6F894DEBF0FBECDBFCF91AD
:10461000DF911F910F91FF90EF90DF90CF90BF90AF
:10462000AF909F908F900895EF92FF920F931F93FA
:10463000DF93CF93CDB7DEB760970FB6F894DEBFA8
:104640000FBECDBF8C01CB01BA017E010894E11CE5
:10465000F11CA7010E940B1FF80132A523A5832F8F
:10466000922FDC01F7018CE001900D928150E1F76F
:1046700060960FB6F894DEBF0FBECDBFCF91DF912D
:104680001F910F91FF90EF9008954F925F927F924C
:104690008F929F92AF92BF92CF92DF92EF92FF9252
:1046A0000F931F93DF93CF93CDB7DEB727970FB646
:1046B000F894DEBF0FBECDBF8C01FC01878188233B
:1046C00009F0BCC08181813A29F1823A20F4803A14
:1046D00009F0B9C006C0833AD1F1883A09F0B3C0F5
:1046E000B0C0F801E184F284CC24DD240FC008942A
:1046F000C11CD11CC7010E941E25009721F4F8019E
:1047000080818823C9F0F701E780F084E114F10487
:1047100071F794C0F801E184F284CC24DD2413C045
:104720000894C11CD11CC7010E94B325009741F415
:10473000F8018081882321F482E08783C0867EC0CF
:10474000F701E780F084E114F10451F777C0F80134
:10475000C184D284772488249924EE24FF242E0156
:104760000894411C511C44C07394D201F60187E0A7
:1047700001900D928150E1F7C2010E941E255C015B
:10478000009731F4F8018081882349F582E029C03F
:10479000E114F10441F480E090E0B5010E94072F9C
:1047A0007C014C0105C0C401B5010E94072F4C01DA
:1047B0009B81F6018281981741F0F801808188235E
:1047C00011F483E00EC087E00BC0F501808187FF04
:1047D0000CC0F8018081882311F484E002C081E1DB
:1047E000F8018783F801708607C0F601C780D0847E
:1047F000C114D10409F0B8CFF80187818823D9F416
:10480000C184D2845701882413C08394F501808128
:104810009181B6010E948426882321F0F8018783C4
:10482000808609C0F601C780D084F501A280B380DC
:10483000C114D10451F7C7010E94222F82EAF80166
:10484000828380E001C08FEF27960FB6F894DEBF19
:104850000FBECDBFCF91DF911F910F91FF90EF90D1
:10486000DF90CF90BF90AF909F908F907F905F90A0
:104870004F900895FC0180919E0790919F070097AB
:1048800059F4F0939F07E0939E07F093A107E093FC
:10489000A007178616860895A091A007B091A107DA
:1048A0001F96FC93EE931E9717861686F093A1072A
:1048B000E093A0070895AF92BF92CF92DF92EF925C
:1048C000FF920F931F93DF93CF9300D0CDB7DEB746
:1048D0006C0159014A8369830E944A2FFC0180E1DF
:1048E000DF011D928A95E9F74A816981309709F4C1
:1048F00044C011870087F586E4861386128660839C
:10490000A114B10491F1403471F0413438F44430D1
:1049100051F04630F9F0423041F511C0443478F09E
:10492000443419F517C0D5010D900020E9F711970F
:10493000AA19BB09B783A683B582A48216C0D50184
:104940000D911D912D913C9113970483158326831E
:1049500037830BC0D50112968D919C911397978345
:1049600086838D919C9195838483D282C182438377
:10497000CF010E943A2480E001C08FEF0F900F908A
:10498000CF91DF911F910F91FF90EF90DF90CF902B
:10499000BF90AF900895CF92DF92EF92FF920F9366
:1049A0001F93CF93DF936C018B01EA0179016115AD
:1049B0007105E1F02097D1F00E944A2FFC01009789
:1049C000A9F0D282C18211870087D387C287E11400
:1049D000F10419F0F586E48602C080E8808385E062
:1049E0008383CF010E943A2480E001C08FEFDF91E2
:1049F000CF911F910F91FF90EF90DF90CF9008958E
:104A000080919E0790919F0790939D0780939C07AC
:104A1000089581E020919C0730919D072115310573
:104A200009F080E00895E0919C07F0919D0786854C
:104A3000978590939D0780939C0708950F931F93EC
:104A4000CF93DF93EC010E94002551C081819281B8
:104A50000E94A92E8C01E0919C07F0919D07828510
:104A60009385009751F588819981DC0112962D91EB
:104A70003C9113970217130731F4618172810E94F0
:104A8000AF2E0097D9F188819981A80141505040FB
:104A9000FC01228133812F5F3F4F2417350768F0D7
:104AA000E0919C07F0919D0761817281402F4150F8
:104AB0000E94C82E009709F440C0E0919C07F09135
:104AC0009D0782859385009781F088819981DC011B
:104AD00012962D913C9113970217130730F46181C0
:104AE00072810E94AF2E009749F00E941325E09139
:104AF0009C07F0919D07309709F0A8CF80919C0703
:104B000090919D07009729F480E88A83E0E0F0E027
:104B100024C0DC011896ED91FC911997309779F03B
:104B2000A881B9816D917C911197600F711F1296C8
:104B30004C91401B09958F3F11F481E8E6CFE0913D
:104B40009C07F0919D0724813581468157812B83F5
:104B50003C834D835E8383818A83CF01DF91CF9134
:104B60001F910F910895EF92FF920F931F93CF9390
:104B7000DF93EC010E9400258AC0618172818881E7
:104B800099810E94AF2E8C01E0919C07F0919D07C6
:104B9000818192810E94A92E7C0180919C07909135
:104BA0009D07DC011A96ED91FC911B973097F1F46B
:104BB00017FD0CC00115110509F067C0E881F981E6
:104BC000228133812E153F0508F05FC0FC01618111
:104BD00072818881998140E00E94DD2EE881F9810F
:104BE00080819181009709F059C084C01016110688
:104BF0000CF44BC00115110561F4A881B9816D91C8
:104C00007C9111976E0D7F1D12964C9112974E1943
:104C100003C060E070E040E009958C010097A9F1C5
:104C2000E0919C07F0919D0761817281DC011296F1
:104C30004C914E0D888199810E94DD2EE881F98189
:104C4000208131812115310509F454C02E0D3F1DFD
:104C5000F8016081718142815381C9010E9473BF53
:104C6000E881F98182819381D80112962D913C913E
:104C70001397820F931F938382838D919C910E943F
:104C8000FABDC8010E94A42E09C00E941325E0911C
:104C90009C07F0919D07309709F06FCF80919C079A
:104CA00090919D07009719F482E88A8323C0DC0164
:104CB0001896ED91FC911997309769F0A881B98108
:104CC0006D917C9111976E0D7F1D12964C914E192E
:104CD00009958F3F79F0E0919C07F0919D07248121
:104CE0003581468157812B833C834D835E8383814D
:104CF0008A8302C0E0E0F0E0CF01DF91CF911F9105
:104D00000F91FF90EF900895CF92DF92EF92FF9274
:104D10000F931F93DF93CF9300D0CDB7DEB77C0105
:104D20008B01FC01C484D584C114D104D1F0FB01F2
:104D3000A081B181FC0181819281FC0182819381FA
:104D40006D917C911197680F791F12964C91481BB9
:104D5000F8010381148125813681C701F601099587
:104D600049C0FB018281863071F0873028F482309F
:104D700091F18430E1F507C0803429F08034B8F136
:104D80008434A8F528C0F701808186FF06C084819D
:104D90009581009711F00E94FABDF8014581568176
:104DA000F70146835783F8018581968149835A83A9
:104DB0000E9460BDF7019583848349815A810097E1
:104DC000C1F0F801638174810E9473BFF701808193
:104DD000806480830AC0F80183819481A581B681B3
:104DE000F70184839583A683B78380E003C083E0C3
:104DF00001C08FEF0F900F90CF91DF911F910F9116
:104E0000FF90EF90DF90CF900895FA01408151819B
:104E10004617570700F5840F951FDC018C918534E8
:104E200048F4803478F48130C0F0873058F0803313
:104E3000A1F408C0803A88F0843A20F0982F955A5F
:104E4000933058F4D9018C9380819181019691839C
:104E5000808380E008958FEF08958FEF08950F937A
:104E60001F93CF93DF93DA01E9012D913C911197C4
:104E700026173707E0F5AC01420F531FFA014081B6
:104E800047FD0AC0488319828D919C911197019624
:104E900011969C938E9327C04F772F5F3F4F1196AB
:104EA0003C932E93433008F5198218821AC02D9135
:104EB0003C911197415026173707C8F4280F391F26
:104EC000F9012081188100E0F801E20FF11DF9835A
:104ED000E8832D913C9111972F5F3F4F11963C93A2
:104EE0002E93442321F780E003C081E001C08FEFBF
:104EF000DF91CF911F910F910895CF92DF92EF92A2
:104F0000FF920F931F93CF93DF93EC017B016A0114
:104F10000E9405278F3F41F0CE01B701A6019801FD
:104F20000E942F2780E001C08FEFDF91CF911F916A
:104F30000F91FF90EF90DF90CF900895CF92DF9286
:104F4000EF92FF920F931F93DF93CF9300D00F92B6
:104F5000CDB7DEB76B017A019E012F5F3F4F8E0107
:104F60000E5F1F4F0E947D2787FD0DC08981803312
:104F700051F4F70180819181C81AD90A8A819B81F5
:104F80008C159D0511F08FEF01C080E00F900F9000
:104F90000F90CF91DF911F910F91FF90EF90DF90D5
:104FA000CF9008950F931F93DF93CF930F92CDB7B8
:104FB000DEB789019E012F5F3F4F0E947D2787FD4D
:104FC00003C08981803311F08FEF01C080E00F9022
:104FD000CF91DF911F910F9108958F929F92AF9281
:104FE000BF92CF92DF92EF92FF920F931F93DF93C6
:104FF000CF9300D00F92CDB7DEB76C014B017A0191
:1050000059019E012F5F3F4F8E010E5F1F4F0E947F
:105010007D2787FD58C08981823009F054C08A817C
:105020009B81009709F44FC0D7012D913C911197B6
:105030000197820F931F8815990508F044C02C0D25
:105040003D1DF901808187FF03C06FEF70E002C052
:1050500060E070E070E080E090E021E031E0A901E4
:105060000E94F8BCD5016D937D938D939C9313970B
:105070001FC0D701ED91FC91EC0DFD1D2081F501C4
:1050800080819181A281B381BA2FA92F982F88277F
:10509000820F911DA11DB11D80839183A283B383D3
:1050A000D7018D919C911197019611969C938E93A7
:1050B0008A819B819C01215030403B832A83009749
:1050C000C1F680E001C08FEF0F900F900F90CF914D
:1050D000DF911F910F91FF90EF90DF90CF90BF90E5
:1050E000AF909F908F9008958F929F92AF92BF92B2
:1050F000CF92DF92EF92FF920F931F93DF93CF93A4
:1051000000D00F92CDB7DEB74C016B017A01590187
:105110009E012F5F3F4F8E010E5F1F4F0E947D2724
:1051200087FD43C08981823409F03FC06A817B8159
:1051300061157105D1F1CB010197D7012D913C91FA
:105140001197820F931F8C159D0578F5F50110823C
:1051500011821282138224C0D701ED91FC91E80DD7
:10516000F91D808190E0A0E0B0E0F501208131815F
:1051700042815381542F432F322F2227822B932B8E
:10518000A42BB52B80839183A283B383D7018D9108
:105190009C911197019611969C938E93615070404B
:1051A00061157105C9F680E001C08FEF0F900F9077
:1051B0000F90CF91DF911F910F91FF90EF90DF90B3
:1051C000CF90BF90AF909F908F9008956F927F92F5
:1051D0008F929F92AF92BF92CF92DF92EF92FF9207
:1051E0000F931F93DF93CF930F92CDB7DEB74C0190
:1051F0005B017A01390168019E012F5F3F4F0E94D8
:105200007D2787FD22C089818430F9F4F701208150
:105210003181C9010197F60140815181840F951FA9
:105220008A159B0590F4820E931EF3019182808271
:10523000F70180819181F60120813181820F931FD6
:10524000F7019183808380E001C08FEF0F90CF91B1
:10525000DF911F910F91FF90EF90DF90CF90BF9063
:10526000AF909F908F907F906F9008950F931F93B2
:10527000CF93DF93FC01DA011D921D921D921C92C7
:1052800013978C0180E021C0E80199918E012D9146
:105290003D914D915C91139777E0220F331F441F8E
:1052A000551F7A95D1F79F77290F311D411D511D4B
:1052B0002D933D934D935C9313978F5F9F01280F20
:1052C000311DE901988197FF02C08617E8F2DF914E
:1052D000CF911F910F9108958F929F92AF92BF929D
:1052E000CF92DF92EF92FF920F931F93DF93CF93B2
:1052F00000D00F92CDB7DEB75C016B017A01490196
:105300009E012F5F3F4F8E010E5F1F4F0E947D2732
:1053100087FD23C08981863001F58A819B810097B2
:10532000E1F0F70120813181280F391FC216D30621
:10533000A0F0F40193838283F701208131812A0D4B
:105340003B1DF40131832083F70120813181280F37
:10535000391F3183208380E001C08FEF0F900F90C1
:105360000F90CF91DF911F910F91FF90EF90DF9001
:10537000CF90BF90AF909F908F900895CF92DF9283
:10538000EF92FF920F931F93DF93CF9300D00F9272
:10539000CDB7DEB76B017A019E012F5F3F4F8E01C3
:1053A0000E5F1F4F0E947D2787FD1BC029818A81C8
:1053B0009B81253019F4009719F013C0009789F0EC
:1053C000F701808191812A813B81820F931F9C018B
:1053D000215030402C153D0520F49183808380E0DE
:1053E00001C08FEF0F900F900F90CF91DF911F9121
:1053F0000F91FF90EF90DF90CF9008950F931F9340
:10540000CF93DF93F9019801EA01A881B981A6172A
:10541000B70790F5A80FB91FAC91A083E881F98177
:10542000E80FF91FE081E63021F1E73038F4E4308D
:1054300091F0E530B0F4E230F9F40AC0E43428F435
:10544000E13490F4E034C1F406C0E434A9F411C0AE
:105450000E94ED270BC089010E5F1F4F0E94E628B6
:1054600005C00E94BE2902C00E947428880F880BC4
:1054700004C00E946C29FACF8FEFDF91CF911F916A
:105480000F9108954F925F926F927F928F929F92A9
:10549000AF92BF92CF92DF92EF92FF920F931F9342
:1054A000DF93CF9300D000D000D0CDB7DEB74C0152
:1054B0006B017A0139012E010894411C511C8201B3
:1054C0000E947D2787FD88C0F70180819181960128
:1054D000281B390BC90129813A812817390709F09E
:1054E0007BC093012E5F3F4FC401B601A7010E940C
:1054F000ED2787FD71C08E010D5F1F4FC401B601FE
:10550000A70198010E94ED2787FD66C08B81F301FA
:105510008683C401B601A70198010E94ED2787FD8B
:105520005BC08B81F3018783F70180819181F30157
:1055300093878287C401B601A7010E949E2787FD39
:105540004BC0F30111861086AA24BB24C201542C3F
:10555000492E38C0C401B601A701252D342D0E9463
:10556000D22787FD39C0F30180859185009749F4E2
:1055700080E090E00E94312F5C01F30191878087E9
:1055800004C0C5010E94312F5C01A114B10411F1C6
:105590000E94992E9C01F50191838083C401B6017C
:1055A000A7010E946C2987FD17C095012E5F3F4F10
:1055B00085010D5F1F4FC401B601A7010E94FE299E
:1055C00087FD0AC0F701808191818C159D0510F23D
:1055D00080E003C082E001C08FEF26960FB6F894FA
:1055E000DEBF0FBECDBFCF91DF911F910F91FF9016
:1055F000EF90DF90CF90BF90AF909F908F907F9073
:105600006F905F904F900895FB014F3F5105E1F07F
:10561000D8F020813181235030403183208337FD01
:1056200037C0280F391F62E8D9016C93A081B1817E
:10563000A80FB91F11965C9311970190F081E02D8E
:10564000E80FF91F428322C0208131814038510583
:1056500090F0225030403183208337FD19C0280F4D
:10566000391F61E8D9016C930190F081E02DE80FBA
:10567000F91F41830BC0215030403183208337FD17
:1056800009C0820F931F4F77FC01408380E008958B
:105690008FEF08958FEF0895FF920F931F93CF938D
:1056A000DF938C01EB01F42EA9010E94042B87FDEE
:1056B0000DC08881998101979983888397FD06C0E1
:1056C000080F191FF801F08280E001C08FEFDF9111
:1056D000CF911F910F91FF900895603020E07207E5
:1056E00020E0820720E19207B8F4603020E07207E2
:1056F00020E2820720E0920788F4603020E47207FD
:1057000020E0820720E0920758F460387105810597
:10571000910540F082E0089585E0089584E00895C1
:1057200083E0089581E00895EF92FF920F931F9315
:10573000CF93DF937B018C01EA010E946D2B91E0F6
:105740009883A82FA1502A2F332727FD3095B90120
:10575000E3E0660F771FEA95E1F7621B730B90E0B9
:10576000FC01E21BF30B3197EC0FFD1FC80FD91F93
:1057700021978E2D8F7714C0AA2369F0A801970175
:10578000062E04C056954795379527950A94D2F76B
:105790002068208301C08883A150675070403196F3
:1057A000A7FFEACF80E0DF91CF911F910F91FF908B
:1057B000EF900895CF92DF92EF92FF920F931F9395
:1057C000CF93DF937C018B01E901FB0120813181C3
:1057D0002C1B3D0B3183208337FD10C0280F391F50
:1057E000C901BA01AE010E9473BFC701B80146E00A
:1057F0009E010E944C2B880F880B01C08FEFDF9118
:10580000CF911F910F91FF90EF90DF90CF9008956F
:105810007F928F929F92AF92BF92CF92DF92EF9240
:10582000FF920F931F93CF93DF935C01FB01F42E44
:1058300080809180C801D9019C01AD012050304089
:1058400040405F4F203060E0360760E0460762E08E
:105850005607E8F49C01AD01205030484F4F5F4F90
:10586000203060E0360761E0460760E0560790F4BC
:105870009C01AD0120583F4F4F4F5F4F2F3F3105E7
:105880004105510551F048F062E070E008C064E065
:1058900070E005C063E070E002C061E070E0940178
:1058A000261B370B3183208337FD3DC0E62EEA945B
:1058B000CE2CDD24C7FCD094002711270C191D091C
:1058C00033E0CC0CDD1C3A95E1F7762E761AC081D8
:1058D000D181CA0DDB1DC60FD71FC00FD11F219765
:1058E0009C01AD010C2C04C0569547953795279522
:1058F0000A94D2F72883EA940F5F1F4F28EF3FEFF7
:10590000C20ED31E272D2E0D27FFE1CF808191815E
:105910009401281B390BC501BF014F2D0E944C2B50
:10592000880F880B01C08FEFDF91CF911F910F91EE
:10593000FF90EF90DF90CF90BF90AF909F908F90AF
:105940007F9008957F928F929F92AF92BF92CF9255
:10595000DF92EF92FF920F931F93CF93DF935C013F
:10596000FB01F42E80809180D901C8018070907075
:10597000A0700097A105B105A9F4D901C8018070F4
:105980009070B0700097A105B10579F4D901C801F4
:105990008070A070B0700097A105B10549F042E099
:1059A00050E008C044E050E005C043E050E002C0D1
:1059B00041E050E0C401841B950B9183808397FDE7
:1059C0003DC0E42EEA94CE2CDD24C7FCD09466279B
:1059D00077276C197D09A3E0CC0CDD1CAA95E1F7B3
:1059E000742E741AC081D181CA0DDB1DC40FD51F5E
:1059F000C60FD71F2197D901C8010C2C04C0B6953A
:105A0000A795979587950A94D2F78883EA946F5F54
:105A10007F4F88EF9FEFC80ED91E872D8E0D87FF11
:105A2000E1CF808191819401281B390BC501BF0111
:105A30004F2D0E944C2B880F880B01C08FEFDF91F8
:105A4000CF911F910F91FF90EF90DF90CF90BF907B
:105A5000AF909F908F907F900895CF92DF92EF92BA
:105A6000FF920F931F93CF93DF937C018B01E9018A
:105A7000FB01208131812C1B3D0B3183208337FDBD
:105A800010C0280F391FC901BA01AE010E9473BFAF
:105A9000C701B80144E09E010E944C2B880F880B7F
:105AA00001C08FEFDF91CF911F910F91FF90EF9089
:105AB000DF90CF900895DA010D900020E9F79D0165
:105AC00021503040241B350B0E942D2D0895AF929C
:105AD000BF92CF92DF92EF92FF920F931F93CF93DB
